:020000040800F2
:1000000000040020C1010008214F0008214F000812
:10001000A1400008214F0008214F0008214F00088F
:10002000214F0008214F0008214F000811700008DF
:10003000214F0008214F0008214F000851C7000838
:10004000214F0008B1A0000841A2000891A20008B9
:10005000214F0008214F0008F19D0008419E000833
:10006000919E0008E19E0008319F0008C1900008A1
:100070001191000861910008B191000801920008F7
:1000800051920008A1920008319B000831A4000899
:10009000A1A4000851A5000801A60008819F00083E
:1000A000214F0008214F000801C20008214F00081D
:1000B00011C3000851C3000891C3000801B2000831
:1000C00041B30008214F0008214F0008214F0008CC
:1000D000214F0008214F0008214F000811C80008D7
:1000E00011A0000801A1000851A10008214F00083B
:1000F000214F0008214F0008214F0008F19200080D
:10010000214F000891A70008D1C30008214F000823
:10011000214F0008214F0008C1C10008214F0008ED
:100120004193000891930008E1930008319400087E
:1001300081940008214F0008A1A10008214F000868
:10014000214F0008214F0008214F0008B1B90008D5
:10015000D19400082195000871950008214F0008EE
:10016000214F0008214F0008214F0008214F0008AF
:10017000F1A10008214F0008E1340008214F0008D8
:10018000214F0008214F0008214F0008214F00088F
:10019000214F0008214F0008214F0008214F00087F
:1001A000214F0008214F0008214F0008214F00086F
:1001B000214F0008214F0008214F0008214F00085F
:1001C00072B62E4880F3098840F20000CCF200009D
:1001D0004EF63471CEF20001086040F20000C0F229
:1001E000F0004EF68851CEF2000108604FF000009A
:1001F000E1EE100A4EF63C71CEF2000108600620D6
:1002000080F31488BFF36F8F0CF04AFC4FF0553029
:100210001B491C4A91423CBF41F8040BFAE71A49BA
:10022000164A91423CBF41F8040BFAE71749184AB5
:10023000184B9A423EBF51F8040B42F8040BF8E702
:1002400000201549154A91423CBF41F8040BFAE7DA
:1002500004F04EFE124C134DAC4203DA54F8041B6A
:100260008847F9E701F05CFF0F4C104DAC4203DA10
:1002700054F8041B8847F9E704F04ABE0008002040
:100280000000002000040020000400204852010863
:1002900000080020A4150020A8150020F89A0020CE
:1002A000C0010008C0010008C0010008C00100082A
:1002B0002DE9F04F2DED108AC1F80CD0D0F80CD0FC
:1002C000BDEC108ABDE8F08F04F06AFF05F028FF4E
:1002D000002383F311882846A047002005F0F0FC96
:1002E00005F006FF04F03CFF05F05AFB04F058FF50
:1002F00005F016FF00DFFEE7000000000000000030
:100300002DE9F843544B80461A68544882422DED3B
:10031000028B1BD052490B68DA0405D40A6842F4F8
:1003200080530B60012000E000204E4A4E491160CE
:1003300013684A4A934208D147490B6030B1484894
:10034000036823F48052026000E0FEE798ED018A22
:10035000B5EE408A0021F1EE10FAC8F81C10C8F87A
:100360001810C8F81410C8F81010C8F82810C8F8E9
:100370002410C8F8201029D0DFED3C7A28EE270A97
:1003800010EE100A01F038F8044618EE100A0D4677
:1003900001F032F80646B8F800000F4601F01AF8EE
:1003A0002BA3D3E9002301F0ADF902460B463046FA
:1003B000394600F0C3FE02460B462046294601F0AE
:1003C000A1F901F0B5FAA8F82C0001E0A8F82C106A
:1003D00098ED028AB5EE408AF1EE10FA26D0B8F810
:1003E00000904FEA092000F0F5FF044618EE100ACD
:1003F0000D4601F001F816A3D3E9002301F058F8E7
:10040000064648460F4600F0E5FF02460B463046DA
:10041000394600F093FE02460B462046294601F07D
:1004200071F901F085FAA8F82E0002E00020A8F882
:100430002E00B8F800204FF47A73B2FBF3F1A8F85D
:100440003010BDEC028BBDE8F88300BFAFF3008035
:100450001F85EB51B81E1940A8150020CDB5E8B591
:100460003038024000300240C2A507F4000080434B
:100470002DE9F04F9BB083461992A94A1891A948DB
:100480001168814200D0FEE79E6AB3F80CC09F69F4
:100490009A8DD98D039603261C6A5D6A059706928C
:1004A00006FB0CF74FEA8C0206264FEA4C000B9134
:1004B0000E97052106FB0CF70F9207220294049574
:1004C0000D90119701FB0CF04FEACC0602FB0CF1EA
:1004D00000271D695C69D3F81CA010901291179633
:1004E0000197188EDDF80490814580F20A818E48CC
:1004F0009BF800601BF80C7010F80690C25DA144D8
:100500008419511994F8008194F8002201EB4808ED
:10051000CDF81C80DDF834801BF80860855DC719B4
:10052000A9180E9A97F800411BF8022097F800725C
:1005300001EB4405815C0895CC1981190F9E91F857
:10054000008191F8007204EB48081BF80640CDF8D2
:1005500024808218055D92F8006192F80022E91962
:1005600001EB460505EB0807DDF8408015971BF801
:1005700008700A950419C15D94F8005194F800427E
:10058000DDF81C808E1806EB4501119D089A1BF8BA
:1005900005508E18C719425D1696161997F8002156
:1005A00006EB42029044CDF85080129C97F80072FE
:1005B0001BF804604519845DE41995F8007195F8FD
:1005C0000052801904EB47044FF01C0804EB0907A4
:1005D00090F80061139708FB09AADDF81C800C94C1
:1005E0000AEB0209152705EB460490F8005207FBB9
:1005F0000890099FDDF820900A2606FB070A0F27BE
:1006000007FB09A04FF00308DDF8289008FB010064
:100610004FF0060A0AFB0900009015984FF03009C8
:1006200009FB00FADDF858902E2000FB09A0824655
:100630000598824413984FF0240909FB00AA1498E6
:100640004FF02A0909FB00AA0898DDF8249008FB5E
:1006500000F8062000FB0988DDF81C9008EB090073
:1006600007FB01010A9F0C98DDF8009006FB0718B4
:100670001C2606FB008115270B9807FB021205922A
:10068000A9F5003868B1029E049FCDF8108006EBF2
:100690000801CE1B46434FF4807296FBF2F00290A5
:1006A0008046069961B1039E08FB01F8C1F5807789
:1006B00006FB07894FF4807299FBF2F003908046A5
:1006C000199901FB08F7002F02DD0837381103E004
:1006D000083F102697FBF6F047F6BC72019E1349BF
:1006E000189FDDF85C809042A8BF1046DA897243FB
:1006F0008842A8BF0146013627F81210C34401966C
:10070000EFE61D615C61029D059C1D629C61039D7D
:10071000049CC3F81CA05C629D621BB0BDE8F08F16
:10072000A8150020CDB5E8B5000800204480FFFFE3
:100730002DE9F04FA1B0C74C1F92C74A1E91116816
:10074000A14200D0FEE79F6A9A69998DDC8D0497DB
:100750009F89069207910F940322052106241D6AA2
:100760005E6A03957A4379437C43129214911594FF
:10077000072209210A24794305964FEA47084FEAE0
:1007800087097A434FEAC70A7C431E695D69D3F83B
:100790001CB01891CDF84480CDF84C901692CDF84D
:1007A0005CA01D94002102911A8E0299914280F260
:1007B0005981AA4A047812F80490A944C55D111918
:1007C00012F8058091F8004191F800A2464406EB2A
:1007D0004406119C0896045D5519165D95F800C1F4
:1007E00095F8005206EB0A0808EB4C0ADDF8488041
:1007F000CDF824A010F80810DDF84C80565C1419D0
:1008000006EB050A10F8085094F800C1565D94F8FC
:10081000004251180AEB4C0C361991F800A1149CB7
:1008200091F80012CDF828C006EB4A08065DCDF815
:100830002C80945DDDF85480551904EB010A95F87D
:10084000004195F800520AEB44010C9110F8081091
:100850009619545C641996F8005104EB45040D9404
:10086000169D96F80062DDF824A0DDF85C80A444B3
:10087000445DCDF86CC0155D5118AD1991F800615B
:1008800091F8001205EB460505EB0A060E9510F8E7
:1008900008501C961419565DDDF860A0711894F884
:1008A000006194F8004201EB460C08990CEB01063C
:1008B0001A9610F80A605519915D9219091995F860
:1008C000004192F8006195F8005201EB44012D249B
:1008D00001EB090804FB09BB10910899CDF864806D
:1008E0000BEB0C09DDF8288005EB460592F8006259
:1008F000242202FB019A152404FB08A9DDF824A098
:100900000C994FF01C0B0BFB0A994FF00A08DDF80D
:100910002CA008FB01994FF00F0B0E990BFB0A99C5
:100920004FF00308DDF834A008FB01994FF0060BE7
:100930000BFB0A99CDF80490DDF82CA00C994FF030
:100940004B0B51440BFB01F91B994FF0490A0AFB71
:10095000019B0699DDF868900BEB010A4FF03F0B05
:100960001C990BFB09AA4FF0450BDDF864900BFBBB
:1009700001AA4FF0370B0BFB09ABDDF824A00A9955
:1009800008FB0AF84FF00609DDF820A009FB0188F2
:100990000C99D0444FF00F09DDF82CA009FB018819
:1009A0000A21DDF8389001FB0A884FF01C0A0D99E6
:1009B0000AFB098804FB018A109C0F994FF02D094E
:1009C00009FB04A8DDF804A002FB0C820692AAF53C
:1009D0007A3971B1039C0599CDF8149004EB0902A2
:1009E000541A0F9A4FF48071544394FBF1F403941A
:1009F000A146079961B1049CC1F5807209FB01FC15
:100A000004FB02C94FF4807199FBF1F20492914604
:100A10001F9C04FB09F1002902DD10314C1103E099
:100A20001039202291FBF2F447F6BC718C42A8BF2A
:100A30000C46DA890299DDF874804A4308498C42F1
:100A4000A8BF21461E9C24F81210029A4044511C53
:100A5000A9E600BFCDB5E8B5A81500200008002024
:100A60004480FFFF05981E615D61039E069D049C06
:100A700058629D61C3F81CB01E629C62104621B092
:100A8000BDE8F08F2DE9F04F95B0994C1392994A3B
:100A900012911168A14200D0FEE75E6A1D6A9F6A4A
:100AA0009A69998DB3F82E800C964FF00009D3F80F
:100AB00010C05E69D3F81CB00195029709920A91A3
:100AC000CDF83480CDF80C908B4904780D190C5D6D
:100AD00095F8007295F8008106EB070A067ACDF8C2
:100AE0002CA08F198E5D97F8002202EB4805AC44CC
:100AF000057C97F80081CDF810C04A194D5D92F839
:100B0000009292F8002109EB040A0AEB480C90F8D5
:100B100018A090F82090CDF814C001EB0A0494F8C6
:100B2000007294F80041BF1907EB420801EB09027B
:100B3000CDF8188092F8006292F80021771907EB3F
:100B4000440606EB080C90F8288011F80A70079606
:100B500001EB0805CDF840C095F8004295F800512A
:100B6000E619059F06EB4204E619119690F83060ED
:100B700008948C1911F8097094F80022D219049F76
:100B800002EB4502BD180F9590F8385011F8089007
:100B900094F80041DDF82C808E5D4F1997F800A283
:100BA00097F800710AEB090C0CEB4404DDF818A06F
:100BB00011F805C000941C2505FB082944440A21AE
:100BC000DDF8148001FB0A9906EB4706DDF820A04A
:100BD0000F2707FB0899032101FB0A99DDF81CA0E8
:100BE0004FF0060808FB0A99DDF810A0152101FB5B
:100BF0000A99CB44DDF84490CDF82CB04FF02E0A82
:100C00000AFB09FADDF840904FF0300B0BFB09AA04
:100C10004FF0240B0BFB04A90F9C4FF02A0A0AFB90
:100C2000049B099CDDF81890DDF810A0A344059CF6
:100C300008FB09A8DDF820A04FF0030909FB048890
:100C4000079C07FB0A890A2707FB0498DDF8009038
:100C5000DDF82CA00C9F05FB098501FB02520199D0
:100C60000992AAF500328C180D99DDF82880E51B51
:100C70004D434FF4807195FBF1F40194019F44467C
:100C80007C43029FC8EB010507FB054595FBF1F18D
:100C90000291139C6143002902DD0831091103E030
:100CA0000839102791FBF7F147F6BC75134C129FDA
:100CB0000C92A942A8BF2946039DA142B8BF214674
:100CC00079530C354030C02D03957FF4FDAE099863
:100CD000019C029D9861C3F810C05E61C3F81CB00E
:100CE0001C625A629D62102015B0BDE8F08F00BFF3
:100CF000CDB5E8B5A8150020000800204480FFFF0E
:100D00002DE9F04FA1B084461F92BE4A1E91BE4805
:100D10001168814200D0FEE79E6A9F6905969E8910
:100D2000D98D01967000079703277E431190019893
:100D30009A8D0F9112960521019E08924843B200A8
:100D40001490019E01980199139206277E43072271
:100D5000C700514315961797019E019F1C6A5D6A53
:100D6000169109220A2156434F434FF0000804947C
:100D700006955C691D69D3F81CB018961D97CDF8CF
:100D80000C80188EDDF80C90814580F25A819F49C5
:100D90009CF80000DDF804900F181CF8096097F823
:100DA00000A297F80021085CA2448C198E5D94F88B
:100DB000008294F80041454405EB4207119D0997D4
:100DC0001CF805504A194D5D92F8007292F80081A6
:100DD0003F18129807EB44091CF80040CDF8289002
:100DE00008190C5D90F8007290F80001BF1907EB2C
:100DF0004809DDF84C80CDF82C901CF8089001EBE8
:100E00000902CDF8089092F8006292F80021771953
:100E1000149E1CF80690159E07EB400801EB090094
:100E2000CDF8308090F8005290F800012F1907EBB0
:100E300042081CF80670029DCDF83480CA194E5D38
:100E400092F80042A41904EB40050295DDF82C80CD
:100E5000169E92F80021CF5DA844CDF86C801CF856
:100E6000068011F80950DDF8609001EB080011F8D8
:100E7000088090F8004290F8000166190A9D06EB80
:100E80004204179A0E9466191C961CF802608C197D
:100E90008E5D94F8002294F80041D519099F05EB66
:100EA0004002D5191A951CF809504F194D5D97F855
:100EB000000297F80071404400EB44002D2100EB44
:100EC0000A0401FB0ABB1090099819940BEB020A63
:100ED00006EB470424210B9F01FB00A94FF01508E6
:100EE000DDF828A00D9808FB07964FF01C0B0BFBB4
:100EF0000A69DDF830800A2606FB009A0F27DDF824
:100F0000389007FB08AB4FF0030808FB09BADDF87F
:100F100008B0062000FB0BA9CDF80090DDF834A046
:100F2000DDF830B04FF04B090AEB0B0009FB00FA7B
:100F30001B984FF0490B0BFB00A9079809EB000A1F
:100F4000DDF868901C984FF03F0B0BFB09AA4FF09F
:100F5000450BDDF864900BFB00AA4FF0370B0BFB41
:100F600009ABDDF828A00B9808FB0AF84FF006093A
:100F7000DDF824A009FB00880D9808EB0A0907FB9F
:100F800000980C9FDDF83890029806FB07864FF01A
:100F90001C0A0AFB0968152707FB008610980F9F9B
:100FA0004FF02D0909FB006A01FB02A2DDF800A049
:100FB0000792AAF57A386FB10499069ECDF8188089
:100FC00001EB0800811B79434FF4807291FBF2F72B
:100FD0000497B846089860B1059908FB00F8C0F579
:100FE000807601FB06894FF4807299FBF2F7059732
:100FF000B8461F9800FB08F6002E09DD1036771161
:101000000AE000BFA8150020CDB5E8B50008002013
:10101000103E202196FBF1F7039ED8891049DDF898
:10102000748047F6BC729742A8BF17468F42A8BF8C
:10103000394670431E9F721C27F81010C444039257
:101040009FE65C61079C049A9C61059E069C1D615D
:10105000C3F81CB01A625C629E6221B0BDE8F08FDA
:101060004480FFFFAFF3008000000000000000009C
:101070004B1C012B98BF70472DE9F003911C9B0876
:10108000B1F80480B1F802900A8831F802CC8044AB
:10109000814402448444D9F80070D8F8006015688F
:1010A000DCF80040C9F80060C8F80070CCF80050C7
:1010B0001460D9F80470D8F804605568DCF804406E
:1010C000C9F80460C8F80470CCF8045054600831C2
:1010D000013BD5D1BDE8F00370474B1C012B98BFF5
:1010E00070472DE9F003911C9B08B1F80480B1F81A
:1010F00002900A8831F802CC00EB580800EB59093D
:1011000000EB520200EB5C0CD9F80070D8F80060DC
:101110001568DCF80040C9F80060C8F80070CCF829
:10112000005014600831013BDFD1BDE8F003704787
:1011300081F0004102E000BF83F0004330B54FEA88
:1011400041044FEA430594EA050F08BF90EA020FF5
:101150001FBF54EA000C55EA020C7FEA645C7FEA88
:10116000655C00F0E2804FEA5454D4EB5555B8BFAB
:101170006D420CDD2C4480EA020281EA030382EA1C
:10118000000083EA010180EA020281EA0303362DAE
:1011900088BF30BD11F0004F4FEA01314FF4801C81
:1011A0004CEA113102D0404261EB410113F0004F93
:1011B0004FEA03334CEA133302D0524263EB43034A
:1011C00094EA050F00F0A780A4F10104D5F1200EE8
:1011D0000DDB02FA0EFC22FA05F2801841F1000143
:1011E00003FA0EF2801843FA05F359410EE0A5F117
:1011F00020050EF1200E012A03FA0EFC28BF4CF048
:10120000020C43FA05F3C01851EBE37101F00045FD
:1012100007D54FF0000EDCF1000C7EEB00006EEB0A
:101220000101B1F5801F1BD3B1F5001F0CD3490894
:101230005FEA30004FEA3C0C04F101044FEA4452EB
:1012400012F5800F80F09A80BCF1004F08BF5FEA72
:10125000500C50F1000041EB045141EA050130BD52
:101260005FEA4C0C404141EB010111F4801FA4F1F5
:101270000104E9D191F0000F04BF01460020B1FA4A
:1012800081F308BF2033A3F10B03B3F120020CDA82
:101290000C3208DD02F1140CC2F10C0201FA0CF060
:1012A00021FA02F10CE002F11402D8BFC2F1200CC5
:1012B00001FA02F120FA0CFCDCBF41EA0C0190407B
:1012C000E41AA2BF01EB0451294330BD6FEA0404C4
:1012D0001F3C1CDA0C340EDC04F11404C4F12002AF
:1012E00020FA04F001FA02F340EA030021FA04F3C1
:1012F00045EA030130BDC4F10C04C4F1200220FA18
:1013000002F001FA04F340EA0300294630BD21FA55
:1013100004F0294630BD94F0000F83F4801306BF1B
:1013200081F480110134013D4EE77FEA645C18BF0F
:101330007FEA655C29D094EA050F08BF90EA020FA6
:1013400005D054EA000C04BF1946104630BD91EA9E
:10135000030F1EBF0021002030BD5FEA545C05D1A1
:101360004000494128BF41F0004130BD14F58004E0
:101370003CBF01F5801130BD01F0004545F0FE4154
:1013800041F470014FF0000030BD7FEA645C1ABF89
:10139000194610467FEA655C1CBF0B46024650EAC0
:1013A000013406BF52EA033591EA030F41F40021EC
:1013B00030BD00BF90F0000F04BF0021704730B572
:1013C0004FF4806404F132044FF000054FF0000147
:1013D00050E700BF90F0000F04BF0021704730B508
:1013E0004FF4806404F1320410F0004548BF4042DD
:1013F0004FF000013EE700BF42004FEAE2014FEA32
:1014000031014FEA02701FBF12F07F4393F07F4F0C
:1014100081F06051704732F07F4208BF704793F00F
:101420007F4F04BF41F40021704730B54FF4607422
:1014300001F0004521F000411CE700BF50EA010225
:1014400008BF704730B54FF000050AE050EA0102CE
:1014500008BF704730B511F0004502D5404261EB3E
:1014600041014FF4806404F132045FEA915C3FF47F
:10147000D8AE4FF003025FEADC0C18BF03325FEA1C
:10148000DC0C18BF033202EBDC02C2F1200300FACD
:1014900003FC20FA02F001FA03FE40EA0E0021FAF2
:1014A00002F11444BDE600BF00000000000000008F
:1014B00070B54FF0FF0C4CF4E06C1CEA11541DBFEA
:1014C0001CEA135594EA0C0F95EA0C0F00F0DEF8B5
:1014D0002C4481EA030621EA4C5123EA4C5350EA9A
:1014E000013518BF52EA033541F4801143F48013EB
:1014F00038D0A0FB02CE4FF00005E1FB02E506F07C
:101500000042E0FB03E54FF00006E1FB03569CF0D0
:10151000000F18BF4EF0010EA4F1FF04B6F5007FD6
:1015200064F5407404D25FEA4E0E6D4146EB060648
:1015300042EAC62141EA55514FEAC52040EA5E50D1
:101540004FEACE2EB4F1FD0C88BFBCF5E06F1ED87B
:10155000BEF1004F08BF5FEA500E50F1000041EBB2
:10156000045170BD06F0004646EA010140EA02005F
:1015700081EA0301B4EB5C04C2BFD4EB0C0541EA81
:10158000045170BD41F480114FF0000E013C00F396
:10159000AB8014F1360FDEBF002001F0004170BDBA
:1015A000C4F10004203C35DA0C341BDC04F11404D3
:1015B000C4F1200500FA05F320FA04F001FA05F25F
:1015C00040EA020001F0004221F0004110EBD3702C
:1015D00021FA04F642EB06015EEA430E08BF20EA58
:1015E000D37070BDC4F10C04C4F1200500FA04F3FB
:1015F00020FA05F001FA04F240EA020001F000418D
:1016000010EBD37041F100015EEA430E08BF20EAFF
:10161000D37070BDC4F1200500FA05F24EEA020E47
:1016200020FA04F301FA05F243EA020321FA04F076
:1016300001F0004121FA04F220EA020000EBD3702D
:101640005EEA430E08BF20EAD37070BD94F0000F2D
:101650000FD101F00046400041EB010111F4801F61
:1016600008BF013CF7D041EA060195F0000F18BF12
:10167000704703F00046520043EB030313F4801F4E
:1016800008BF013DF7D043EA0603704794EA0C0F08
:101690000CEA135518BF95EA0C0F0CD050EA41061E
:1016A00018BF52EA4306D1D181EA030101F000419B
:1016B0004FF0000070BD50EA410606BF10461946C3
:1016C00052EA430619D094EA0C0F02D150EA0136CF
:1016D00013D195EA0C0F05D152EA03361CBF104610
:1016E00019460AD181EA030101F0004141F0FE41AF
:1016F00041F470014FF0000070BD41F0FE4141F433
:10170000780170BD70B54FF0FF0C4CF4E06C1CEA32
:1017100011541DBF1CEA135594EA0C0F95EA0C0FE7
:1017200000F0A7F8A4EB050481EA030E52EA0335A2
:101730004FEA013100F088804FEA03334FF08055C3
:1017400045EA131343EA12634FEA022245EA1115F0
:1017500045EA10654FEA00260EF000419D4208BFA1
:10176000964244F1FD0404F5407402D25B084FEA4E
:101770003202B61A65EB03055B084FEA32024FF4FA
:1017800080104FF4002CB6EB020E75EB030E22BF57
:10179000B61A754640EA0C005B084FEA3202B6EB17
:1017A000020E75EB030E22BFB61A754640EA5C00C6
:1017B0005B084FEA3202B6EB020E75EB030E22BF56
:1017C000B61A754640EA9C005B084FEA3202B6EB57
:1017D000020E75EB030E22BFB61A754640EADC0016
:1017E00055EA060E18D04FEA051545EA16754FEA78
:1017F00006164FEAC30343EA52734FEAC2025FEA96
:101800001C1CC0D111F4801F0BD141EA00014FF024
:1018100000004FF0004CB6E711F4801F04BF0143F5
:101820000020B4F1FD0C88BFBCF5E06F3FF6AFAE11
:10183000B5EB030C04BFB6EB020C5FEA500C50F1A1
:10184000000041EB045170BD0EF0004E4EEA113124
:1018500014EB5C04C2BFD4EB0C0541EA045170BD2B
:1018600041F480114FF0000E013C90E645EA060E6F
:101870008DE60CEA135594EA0C0F08BF95EA0C0F9D
:101880003FF43BAF94EA0C0F0AD150EA01347FF4E5
:1018900034AF95EA0C0F7FF425AF104619462CE7BC
:1018A00095EA0C0F06D152EA03353FF4FDAE10461F
:1018B000194622E750EA410618BF52EA43067FF470
:1018C000C5AE50EA41047FF40DAF52EA43057FF400
:1018D000EBAE12E700000000000000000000000076
:1018E0004FEA410212F5001215D211D56FF4787348
:1018F000B3EB625212D94FEAC12343F0004343EAEB
:10190000505311F0004F23FA02F018BF40427047C5
:101910004FF00000704750EA013005D111F000404F
:1019200008BF6FF0004070474FF00000704700BFE5
:101930004A0011D212F5001211D20DD56FF478734E
:10194000B3EB62520ED44FEAC12343F0004343EAA3
:10195000505323FA02F070474FF00000704750EAEE
:10196000013002D14FF0FF3070474FF00000704758
:101970004FEA4102B2F1E04324BFB3F5001CDCF1B1
:10198000FE5C0DD901F0004C4FEAC0024CEA5070E9
:10199000B2F1004F40EB830008BF20F00100704718
:1019A00011F0804F21D113F13872BCBF01F000401B
:1019B000704741F480114FEA5252C2F11802C2F14D
:1019C000200C10FA0CF320FA02F018BF40F00100CE
:1019D0004FEAC1234FEAD32303FA0CFC40EA0C0080
:1019E00023FA02F34FEA4303CCE77FEA625307D1BD
:1019F00050EA01331EBF4FF0FE4040F440007047F4
:101A000001F0004040F0FE4040F40000704700BF8D
:101A100053B94AB9002908BF00281CBF4FF0FF3155
:101A20004FF0FF3000F074B9ADF1080C6DE904CE51
:101A300000F006F8DDF804E0DDE9022304B07047A9
:101A40002DE9F047089E04468846002B4BD18A4278
:101A5000154667D9B2FA82F24AB1C2F1200701FAFB
:101A600002F320FA07F7954047EA030894404FEA4B
:101A7000154E230CB8FBFEF71FFA85FC0EFB1788EA
:101A800043EA084307FB0CF1994209D9EB1807F127
:101A9000FF3080F01B81994240F21881023F2B44B5
:101AA0005B1AA4B2B3FBFEF00EFB103344EA03440E
:101AB00000FB0CFCA44509D92C1900F1FF3380F080
:101AC0000781A44540F2048102382C4440EA0740D3
:101AD000A4EB0C0400271EB1D4400023C6E9004348
:101AE0003946BDE8F0878B4209D9002E00F0EB8023
:101AF0000027C6E9000138463946BDE8F087B3FA49
:101B000083F7002F47D18B4202D3824200F2FA8042
:101B1000841A61EB030301209846002EE0D0C6E949
:101B20000048DDE702B9FFDEB2FA82F2002A40F097
:101B30008F80491B4FEA154E1FFA85F80127B1FB2C
:101B4000FEFC230C0EFB1C1143EA014308FB0CF1C5
:101B5000994207D9EB180CF1FF3002D2994200F2FA
:101B6000CD808446591AA3B2B1FBFEF00EFB1014CF
:101B700043EA044408FB00F8A04507D92C1900F1FA
:101B8000FF3302D2A04500F2B6801846A4EB080449
:101B900040EA0C409FE7C7F1200CBB4022FA0CFE44
:101BA0004EEA030E01FA07F420FA0CF521FA0CF3C1
:101BB0004FEA1E482543B3FBF8F92C0C08FB1933F8
:101BC0001FFA8EFA44EA034309FB0AF49C4202FA24
:101BD00007F200FA07F10BD91EEB030309F1FF30FE
:101BE00080F087809C4240F28480A9F1020973440E
:101BF0001B1BADB2B3FBF8F008FB103345EA0344FE
:101C000000FB0AFAA24508D91EEB040400F1FF33D9
:101C10006BD2A24569D90238744440EA0940A0FB5E
:101C20000289A4EB0A044C45C2464B4654D351D01A
:101C3000002E69D0B1EB0A0564EB030404FA0CFC36
:101C4000FD40FC404CEA0505C6E90054002747E783
:101C5000C2F1200320FA03F7954001FA02F021FABD
:101C600003F34FEA154E3843010CB3FBFEF71FFA9E
:101C700085F80EFB173341EA034107FB08F38B425B
:101C800004FA02F407D9691807F1FF3C2FD28B42FE
:101C90002DD9023F2944CB1A81B2B3FBFEF00EFBD3
:101CA000103341EA034100FB08F38B4207D969185E
:101CB00000F1FF3C17D28B4215D902382944C91ACA
:101CC00040EA07473BE73746304609E70746E7E67D
:101CD0001846FBE64145ABD2B8EB020A69EB0E02AF
:101CE00001381346A4E76046E9E7184695E76746DA
:101CF000D1E781467CE702382C4447E7ACF1020C7F
:101D00002B442FE7384608E73746E9E60000000095
:101D1000704700BF0000000000000000000000004D
:101D2000844641EA000313F003036DD1403A41D3E6
:101D300051F8043B40F8043B51F8043B40F8043BA5
:101D400051F8043B40F8043B51F8043B40F8043B95
:101D500051F8043B40F8043B51F8043B40F8043B85
:101D600051F8043B40F8043B51F8043B40F8043B75
:101D700051F8043B40F8043B51F8043B40F8043B65
:101D800051F8043B40F8043B51F8043B40F8043B55
:101D900051F8043B40F8043B51F8043B40F8043B45
:101DA00051F8043B40F8043B51F8043B40F8043B35
:101DB000403ABDD2303211D351F8043B40F8043BD5
:101DC00051F8043B40F8043B51F8043B40F8043B15
:101DD00051F8043B40F8043B103AEDD20C3205D3E5
:101DE00051F8043B40F8043B043AF9D2043208D0DD
:101DF000D2071CBF11F8013B00F8013B01D30B884F
:101E000003806046704700BF082A13D38B078DD02C
:101E100010F003038AD0C3F10403D21ADB071CBFFE
:101E200011F8013B00F8013B80D331F8023B20F868
:101E3000023B7BE7043AD9D3013A11F8013B00F8A1
:101E4000013BF9D20B7803704B7843708B78837029
:101E50006046704700000000000000000000000025
:101E600090F800F06DE9024520F007016FF0000CDA
:101E700010F0070491F820F040F049804FF0000482
:101E80006FF00700D1E9002391F840F000F108005D
:101E900082FA4CF2A4FA8CF283FA4CF3A2FA8CF395
:101EA0004BBBD1E9022382FA4CF200F10800A4FAFC
:101EB0008CF283FA4CF3A2FA8CF3E3B9D1E9042350
:101EC00082FA4CF200F10800A4FA8CF283FA4CF387
:101ED000A2FA8CF37BB9D1E9062301F1200182FA41
:101EE0004CF200F10800A4FA8CF283FA4CF3A2FA47
:101EF0008CF3002BC6D0002A04BF04301A4612BA55
:101F0000B2FA82F2FDE8024500EBD2007047D1E957
:101F1000002304F00305C4F100004FEAC50514F0E6
:101F2000040F91F840F00CFA05F562EA05021CBFB7
:101F300063EA050362464FF00004A9E700000000D1
:101F400001F0FF01102A2BDB10F0070F08D010F86A
:101F5000013B013A8B422DD010F0070F42B3F6D16E
:101F6000F0B441EA012141EA014122F007047FF087
:101F700000070023F0E80256083C85EA010586EADE
:101F8000010685FA47F5A3FA87F586FA47F6A5FA1A
:101F900087F68EB9EED1F0BC01F0FF0102F0070226
:101FA00032B110F8013B013A83EA010313B1F8D1D1
:101FB0000020704701387047002D06BF35460338B2
:101FC000073815F0010F07D1013015F4807F02BFEB
:101FD000013015F4C03F0130F0BC0138704700BF3C
:101FE0004FF0FF3C06E000BF4FF0010C02E000BFE5
:101FF0004FF0010C4DF804CD4FEA410C7FEA6C5CC8
:102000004FEA430C18BF7FEA6C5C1BD001B050EA6A
:10201000410C0CBF52EA430C91EA030F02BF90EA55
:10202000020F0020704710F1000F91EA030F58BF14
:10203000994208BF90422CBFD8176FEAE37040F076
:10204000010070474FEA410C7FEA6C5C02D150EA14
:10205000013C07D14FEA430C7FEA6C5CD6D152EACF
:10206000033CD3D05DF8040B704700BF8446104694
:1020700062468C461946634600E000BF01B5FFF793
:10208000B7FF002848BF10F1000F01BD4DF808ED63
:10209000FFF7F4FF0CBF012000205DF808FB00BF34
:1020A0004DF808EDFFF7EAFF34BF012000205DF88E
:1020B00008FB00BF4DF808EDFFF7E0FF94BF0120DB
:1020C00000205DF808FB00BF4DF808EDFFF7CEFFDC
:1020D00094BF012000205DF808FB00BF4DF808ED1B
:1020E000FFF7C4FF34BF012000205DF808FB00BFEC
:1020F0004FEA410C7FEA6C5C02D150EA013C0AD104
:102100004FEA430C7FEA6C5C02D152EA033C02D1F5
:102110004FF0000070474FF00100704700000000D2
:1021200000B5144B83B01B68019304F0D1FF02F09B
:102130000FFF01F05DFF104A1049114802F028FE20
:102140001049114806F01CFA02F07AFC02F088FAF5
:1021500000F0AEF940F6B83003F03AFD02F0C0FCF2
:102160000A4801F05DFB02F043FD4FF47A7003F082
:102170002FFDFAE7000B0020040B00200C0B0020C1
:10218000AC150020200B00204C9A00207130000874
:1021900000B5084B83B01A680192019A1B689A42F5
:1021A00005D1054803B05DF804EB02F039BFFFF735
:1021B000EFFF00BF000B0020D0140108000000005A
:1021C00030B5114B114A1B78114C12491578226811
:1021D00083B000EBC303019251F82310024675B19E
:1021E0000D480E4B0160002018700846019D2368C1
:1021F0009D4207D103B0BDE8304000F0A9BE064BB8
:102200001868F3E7FFF7C4FFB81500201C1600207C
:10221000000B0020BC1500202016002024160020F2
:102220002DE9F04F2C4BDFF8C0A01B682B4F2C4C36
:102230002C4E83B00AF1040801934FF0000B0825DF
:102240000DE0BBF1020F5FFA8BF135D0052939D0D3
:102250000023072904F80B3020D00BF1010B3B7849
:10226000584615FB03B902F05BFC48F829005AF800
:10227000040FDAF82030DAF8401003440B4486FBF0
:102280000321A1EBE373B3F5C87FDADB5FFA8BF1CF
:102290004FF00103072904F80B30DED123780BB18E
:1022A000E3790BB9002323700B4B019A1B689A4208
:1022B0000FD103B0BDE8F08FFA2BC9DD4FF0010359
:1022C000A370CAE7B3F5AF7FC2DD4FF001036371BE
:1022D000C3E7FFF75DFF00BF000B0020B81500202B
:1022E0002816002056555555B8150020000000004E
:1022F00010B51F4C82B02368019305280FD8DFE882
:1023000000F02F03192214264FF4FA716FF05900D0
:1023100000F0CEFC00F06CFC164B01221A70019A02
:1023200023689A4222D102B010BD4FF47A71B420D2
:1023300000F0BEFC019A23689A4217D102B0BDE8B2
:10234000104000F055BC4FF4FA715A20E0E7019AB2
:1023500023689A420AD102B0BDE8104000F088BC60
:1023600000F046FC044B01221A70D8E7FFF710FF7B
:10237000000B0020241600201C1600200000000086
:102380002DE980483E4A3F4B92693F491B68916165
:1023900085B03E4E3E4D3F4CDFF8FCA0DFF8FC9090
:1023A000DFF8FC800393002700F032F9002834D1D5
:1023B000FFF736FF337853B12B786279DB00002AC0
:1023C00041D0063359F82330CAF80030377098F8F6
:1023D0000030A1787BB331B3617921B30A4620780C
:1023E00000F0AEFBFFF784FF00F02AF930B162790C
:1023F000A37812B36BBB0620FFF7E2FE2B78013304
:10240000DBB2022B4FF0190094BF2B702F7003F03A
:10241000DFFB00F0FDF80028CAD04FF47A71B42039
:1024200000F046FCC4E7162000F08AFC00F020FC17
:10243000A17888F800706279D1E7002BDED0012006
:10244000FFF7BEFEDAE7013359F82330CAF800304F
:10245000BCE7012002F064FB8346062002F060FB2B
:102460000190022002F05CFB0090052002F058FB76
:10247000DDE900210346584600F04AFDBEE700BFF3
:10248000288C0020000B0020F014010824160020E6
:10249000B81500202816002020160020BC150020AA
:1024A0001C160020000000000000000000000000DA
:1024B00010B50A4C0A4B22680A4884B04FF41E71CA
:1024C000039200220092412203F02AFB039A236820
:1024D0009A4201D104B010BDFFF75AFE000B002054
:1024E00081230008301600200000000000000000DA
:1024F00000B50C490C4A0B78106883B0042B01908E
:1025000009D801330B70002001991368994206D154
:1025100003B05DF804FB00230B700120F4E7FFF724
:1025200037FE00BFDF180020000B00200000000075
:10253000F0B5144B144D1C782A6883B0022C01921C
:102540000BD0124A0021022411701C70019A2B68D2
:102550009A42204614D103B0F0BD06460F46FFF75D
:10256000C7FF0028F2D00A4B1EB12FB903241F70F9
:10257000ECE701241E70E9E701221A700024E5E768
:10258000FFF706FE2C0B0020000B0020DF180020B8
:102590002D0B0020000000000000000000000000E3
:1025A00010B5134B134C1A78216882B0032A01919D
:1025B0000AD011490020032208701A70019A23687A
:1025C0009A4212D102B010BDFFF792FF0028F5D059
:1025D0000A4A92F90030002BC4BF03F1FF33137095
:1025E000074B00221A700420E8E7FFF7D1FD00BF77
:1025F0002C0B0020000B0020DF180020A818002062
:102600002E0B002000000000000000000000000071
:1026100000B5094A094B1078196883B0019108B1D7
:1026200000211170019A1B689A4202D103B05DF833
:1026300004FBFFF7ADFD00BFA9180020000B002030
:1026400000B5094B09491A68087883B00030019237
:10265000019A1B6818BF01209A4202D103B05DF8AD
:1026600004FBFFF795FD00BF000B0020DE180020E3
:1026700010B5094B09491A6891F90010084882B051
:1026800006240192019A1B6844549A4201D102B077
:1026900010BDFFF77DFD00BF000B0020A818002033
:1026A000AC18002000000000000000000000000046
:1026B000F0B5104C83B00E46216801910146002010
:1026C00015461F4601F094FB3146012001F090FBB6
:1026D0002946022001F08CFB01992268914206D123
:1026E0003946032003B0BDE8F04001F081BBFFF79D
:1026F0004FFD00BF000B00200000000000000000A4
:1027000030B5234B234D1B782A6883B000240192F7
:10271000032B03D8DFE803F0251B2F110023E0B2C1
:102720001A461946013401F0BBFB042CF6D1019A7C
:102730002B689A4229D103B030BD0022E0B2114685
:102740006423013401F0ACFB042CF6D1EFE7002345
:10275000E0B219466422013401F0A2FB042CF6D148
:10276000E5E76423E0B21A461946013401F098FB0C
:10277000042CF6D1DBE70023E0B21A4664210134D1
:1027800001F08EFB042CF6D1D1E7FFF701FD00BF6D
:10279000DE180020000B00200000000000000000F8
:1027A00070B5104E104D11482B681149327882B027
:1027B00000240193012304700B705AB10D4A137069
:1027C000FFF79EFF34702046019A2B689A4207D18A
:1027D00002B070BD074B1A70FFF792FF0520F3E7B8
:1027E000FFF7D6FCE1180020000B0020AA180020FB
:1027F0002D0B0020DE18002000000000000000006B
:1028000030B5224B224A93F90010224B525C1C68CF
:1028100083B0062A019417D0052A01D1022815D0C9
:102820001D4C2278824211D0022A27D002281DD0C6
:10283000012811D02070019A1B689A4223D103B05D
:10284000BDE83040FFF75CBF0228E9D0019A1B6861
:102850009A4218D103B030BD104A92F900208A4242
:10286000E8D00F49032208702270E4E70D4A12787D
:10287000002ADFD00C4A01251570D9E7094A1278E1
:10288000002AD5D0F6E7FFF783FC00BFE018002050
:10289000AC180020000B0020DE180020A818002033
:1028A000E11800202E0B0020A918002000000000D5
:1028B00010B5224C82B02368019301F009FB00237C
:1028C000012219461046FFF7F3FE4FF47A716FF0BC
:1028D000B30000F0EDF90123002219461046FFF77E
:1028E000E7FE4FF47A716FF0B30000F0E1F90023D6
:1028F000012219461046FFF7DBFE4FF47A71B4202F
:1029000000F0D6F901231A4619461846FFF7D0FE03
:102910004FF47A71B42000F0CBF900231A4619461F
:102920001846FFF7C5FE019A23689A4204D102B007
:10293000BDE81040FFF7E4BEFFF72AFC000B0020C3
:1029400070B52449244C91F90030244D22682B7035
:1029500082B001922BB3224DEA5C062A2ED0A0B1A0
:102960000232D2B2042AEA544FF0020614D0312BBC
:1029700020DC01330B701B4B00221A70019A236874
:102980009A42304623D102B070BD0132D2B2042A3D
:10299000EA544FF00106EAD10022EA54013B0B70E1
:1029A000E9E70F4A0F4805251570012203700A70E8
:1029B0000226E3E70C4802F033FBDCE70B4A013365
:1029C00000200B7010700526FFF772FFD6E7FFF7A7
:1029D000DFFB00BFA8180020000B0020E01800203B
:1029E000AC1800202D0B002000150108DE18002077
:1029F000F0B52848284D047828492B6883B0002674
:102A0000022C01930E701BD0254B93F90070012FFF
:102A100032DD244A244C92F90030E45C062C24D0A8
:102A2000FBB1013FBB421DDB204B01221A70FFF7B7
:102A300067FE019A2B689A42204629D103B0F0BD67
:102A4000184A92F90030B3421BDD1749C85C0628CA
:102A500018BFC0F1040003F1FF3318BFC4B21370F4
:102A6000E5E7022401331370E1E7012306700B70E0
:102A70000524FFF71DFFDAE70C4B01221A70022430
:102A8000D5E7012306700B700424FFF711FFCEE792
:102A9000FFF77EFBDE180020000B00202D0B00202E
:102AA000A8180020E0180020AC180020AA18002068
:102AB00030B51B4B1B4C1B78226883B001923BB195
:102AC000194B1A788A420BD0184A197000231370D8
:102AD000019A23689A424FF002001ED103B030BD24
:102AE0000546FFF705FD0028F2D0114B114A1B786F
:102AF00001218B421170019A236806D09A420CD1B1
:102B000003B0BDE83040FFF773BF9A4205D12846B5
:102B100003B0BDE83040FFF713BFFFF739FB00BF3C
:102B20002D0B0020000B00202C0B0020DF180020B4
:102B3000DE1800202E0B0020000000000000000026
:102B400030B5254B254C1B78256883B0019523B300
:102B50000D4611444318D9B2022910D0032924D1BB
:102B60001F4B204A1B7801211170019A4BB3236837
:102B70009A422ED103B0BDE83040FFF711BE184B8A
:102B80001B78E3B901992368994222D1114628465E
:102B900003B0BDE83040FFF7CBBC019A23689A42EE
:102BA0004FF0050015D103B030BD019A23689A4259
:102BB0000FD1284603B0BDE83040FFF779BF019A36
:102BC000D5E723689A4204D103B0BDE83040FFF74F
:102BD000E7BCFFF7DDFA00BFDE180020000B002085
:102BE000AA1800202D0B00200000000000000000AB
:102BF00030B50C4D0C4A0D4B296883B04FF4FA7474
:102C0000204614601C60019101F0B2FC019A2B680F
:102C10009A4205D1204603B0BDE8304001F090BC97
:102C2000FFF7B6FA000B0020E8180020E418002097
:102C300030B50B4C0B4A0C4B2568116083B0186003
:102C400001950D4601F094FC019A23689A4205D142
:102C5000284603B0BDE8304001F072BCFFF798FA97
:102C6000000B0020E4180020E818002000000000FD
:102C700030B50C4D0C4A0D4B296883B0002420461A
:102C800014601C60019101F073FC019A2B689A4258
:102C900005D1204603B0BDE8304001F051BCFFF73C
:102CA00077FA00BF000B0020E8180020E41800208D
:102CB00007EE900AB8EEE77ADFED1E7ADFED1E6AC6
:102CC00027EE277AF0B5C7EE267A1C4D83B02B6825
:102CD000019300280E46C1F100074FF00000FDEE01
:102CE000E77A17EE904A14DB01F0A2FC304601F0BF
:102CF0003FFC384601F024FC01F06AFCA042FBDBFB
:102D0000019A2B689A4212D103B0BDE8F040FFF758
:102D1000AFBF01F075FC384601F02AFC304601F0E7
:102D20000FFC644201F03CFCA042FBDBE8E7FFF74C
:102D30002FFA00BF5324A6440000B443000B002028
:102D40004FF47A7303FB00F307EE903ADFED1C6A51
:102D5000B8EEE77A30B5C7EE267A1A4D83B02B6805
:102D6000019300284FF00000FDEEE77A17EE904A3D
:102D700016DB01F05DFC4FF4FA7001F0F9FB4FF443
:102D8000FA7001F0DDFB01F023FCA042FBDB019AAD
:102D90002B689A4212D103B0BDE83040FFF768BFFC
:102DA00001F02EFC084801F0E3FB074801F0C8FBE6
:102DB000644201F0F5FBA042FBDBE8E7FFF7E8F92E
:102DC00000000243000B00200CFEFFFF000000008B
:102DD00000B5074B07491A68086883B00192019A49
:102DE0001B689A4202D103B05DF804FBFFF7D0F9EB
:102DF000000B0020E8180020000000000000000088
:102E000000B5074B07491A68086883B00192019A18
:102E10001B689A4202D103B05DF804FBFFF7B8F9D2
:102E2000000B0020E418002000000000000000005B
:102E30002DE9F0416FF01D048442B8BF04461E2CFA
:102E4000A8BF1E242D4F2E4E07EE104A2DED048BE9
:102E5000D7ED007A3368F8EEC78A82B078EEE77A69
:102E60000193FDEEE77A17EE903A1DB2D9B1FFF764
:102E7000AFFFA4B2ADB204EB05088044FFF7C0FF7A
:102E8000041B611B0FFA88F809B24046FFF7D0FE19
:102E9000019A3368C7ED008A9A422CD102B0BDEC8A
:102EA000048BBDE8F081FFF793FF07EE900ADFED9A
:102EB000159A9FED159AF8EEE77A07EE105AE8EEAC
:102EC000A97AB8EEC78AE8EE097AFDEEE77A17EE3E
:102ED000903A0FFA83F8FFF793FF07EE900AF8EEA7
:102EE000E77AE8EEE97AE8EE497AFDEEE77A17EE5E
:102EF000903A19B2C9E7FFF74BF900BFEC18002070
:102F0000000B00203333B33F3333333F0000000066
:102F100030B50D4C83B025680195FA2801DDFA29FA
:102F20000CDCD01A143800B2019A23689A4208D1F6
:102F3000002103B0BDE83040FFF77ABF401A00B26D
:102F4000F2E7FFF725F900BF000B002000000000AA
:102F500000B50C4B83B0401A19680191012A80B268
:102F6000019A1B6804BFC0F1140080B29A4206D1D6
:102F700000B2012103B05DF804EBFFF759BFFFF782
:102F800007F900BF000B0020000000000000000057
:102F900000B530499FED307A0B6883B0283001933B
:102FA0004FF0FF320A23F0EC017AF4EEC77AF1EE2B
:102FB00010FAC8BF1AB203F10103C8BFB0EE677AB6
:102FC0001F2BF0D1254B18888242254809D01A8042
:102FD00000230370019A0B689A4232D103B05DF866
:102FE00004FB03780133DBB20A2B0370F2D192B2F7
:102FF000A2F11203022B1ED9A2F11603022B0FD944
:10300000A2F10F03022B1ED9193A022AE2D8019A23
:103010000B689A4215D103B05DF804EBFFF728BBAB
:10302000019A0B689A4208BF03200AD103B05DF8E9
:1030300004EBFFF7E5BB019A0B689A4208BF022038
:10304000F4D0FFF7A5F8019A0B689A4208BF012057
:10305000ECD0F6E7000B002000401C46F2180020E0
:10306000F018002000000000000000000000000038
:10307000F0B5364E364D336883B001932B88002966
:103080005BD0B0F90620334C07EE902A5A1C04EBB3
:10309000830792B202339BB2F8EEE77A04EB820226
:1030A0004FF0000EB3F5006FC7ED007A2B80C2F829
:1030B00000E02BD20139C1F38D0100EBC1010027E3
:1030C0001AE0B0F90E2007EE902A5A1C92B203F1D2
:1030D000020C04EB8307F8EEE77A04EB82021FFA96
:1030E0008CF3B3F5006FC7ED007A00F108004FF0E4
:1030F0000107C2F800E008D28842E2D11FBB019A62
:1031000033689A421DD103B0F0BD2B8011494FF4B2
:10311000806000F025F84FF480620F490D480AF0F6
:1031200037F9019A336800219A42298009D10A4867
:1031300003B0BDE8F040FFF72BBFB3F5006FDED35F
:10314000E4E7FFF725F82B80D9E700BF000B00204C
:10315000F4480020F4180020F4380020000000009B
:1031600000B50D4B83B01A680192B0F5806F019ADB
:103170001B6804D09A420CD103B05DF804FB9A425C
:1031800007D106480123002203B05DF804EB0AF0E2
:103190007FB8FEF7FDFF00BF000B002040150108BF
:1031A00030B54368174D1A68296883B00446019109
:1031B00012B304220270DA681B685208114698475D
:1031C0002378042B18D0202383F3118802F0C0FF4A
:1031D00002F006F804F10800002102F0B9FD02F047
:1031E0001FF802F0CDFF002383F31188019A2B68AA
:1031F0009A4204D103B030BD02232370E3E7FEF707
:10320000C7FF00BF000B002000000000000000000E
:1032100070B5194D82B02B68019311F00C0F0C465C
:10322000064622D114F0200109D0019A2B689A4257
:103230001FD1304602B0BDE87040FFF7B1BFE306D2
:103240000DD57268136853B1019C2868844210D16F
:10325000D2683046520802B0BDE870401847019A63
:103260002B689A4205D102B070BD044801F0D8FE27
:10327000D8E7FEF78DFF00BF000B00207015010896
:1032800070B5194D82B02B68019311F00C0F0C46EC
:10329000064622D114F0200109D0019A2B689A42E7
:1032A0001FD1304602B0BDE87040FFF779BFE3069A
:1032B0000DD57268136853B1019C2868844210D1FF
:1032C000D2683046520802B0BDE870401847019AF3
:1032D0002B689A4205D102B070BD044801F0A0FEEF
:1032E000D8E7FEF755FF00BF000B0020701501085E
:1032F00030B50F4D0F4C2A680F4B83B0204601921A
:103300004FF6FF721A8000F05BF90C4B01992A68A6
:103310000B480C4D2562636203F1240591420A4B70
:103320002363C4E90A5001D103B030BDFEF730FF7A
:10333000000B00200C490020F6480020981E0108D0
:103340001E010100003C004046000100000000009A
:1033500070B52C4D03782A6882B0012B0446019287
:1033600024D06368E26A5989236B22F4F04223F483
:10337000F043090544BF42F4205243F42053C4E90A
:103380000B23236A00221A606268236A52891A603A
:10339000236A03225A60226A136843F040031360D1
:1033A000019A2B689A422BD102B070BD164EB042E2
:1033B0000AD0D4E9083212680C339360A26A236AF7
:1033C00012680C339360CCE70346104A406A0A2126
:1033D00006F02EF980B9B06A0B4B0D4A0A2106F0AF
:1033E00027F928B90B4A136C43F400431364E0E750
:1033F000094801F015FEF5E7074801F011FEEAE77C
:10340000FEF7C6FE000B00200C49002081320008A8
:103410001132000800380240501501080000000079
:1034200070B5456A174C2D68266882B00196EB602E
:10343000436A1B685960456AC36A2D6843F4806318
:103440002B60836A1B68DA60836A1B685960826A32
:10345000036B126843F480631360436A1A6813684D
:1034600043F001031360836A1A68136843F0010391
:103470001360019A23689A4201D102B070BDFEF731
:1034800087FE00BF000B00200000000000000000CD
:1034900030B5104D81682B680F4A83B001930B68DB
:1034A00023F001030B608168946A03E0936A1B1B9D
:1034B000C72B09D8086810F00100F7D1019A2B68D2
:1034C0009A4204D103B030BD4FF0FF30F6E7FEF76B
:1034D0005FFE00BF000B0020288C002000000000D1
:1034E000F0B5284D83B02B68019302F0C9FD01F0BF
:1034F000B7FE254B1E69F20715D55A69234C42F0D9
:1035000001025A612778BB1F012B2AD90522636863
:1035100022701B680BB120469847042F27D0022F3A
:1035200025D003232370B30710D5174A174C5369CE
:1035300043F0020353612378032B1DD063689B681B
:103540000622227013B101211048984701F0B0FE05
:10355000019A2B689A4213D103B0BDE8F04003F002
:1035600077BD019A2B689A420AD103B0F0BD0223BD
:103570002370B307EAD5D8E72046FFF789FFDDE7D8
:10358000FEF706FE000B002000000550F848002062
:1035900000B5074B83B01A680192019A1B689A42E2
:1035A00004D103B05DF804EBFFF7A2BEFEF7F0FD17
:1035B000000B0020000000000000000000000000E0
:1035C00000B50A4B83B01A6801920122027001997A
:1035D0001A6800239142C0E9013305D10C3003B0D1
:1035E0005DF804EB02F0BCBEFEF7D2FD000B00203C
:1035F00070B51E4D82B02B6801930E46044670B321
:1036000069B3202383F3118802F072FD01F0A8FD55
:103610002378013B012B02D9154801F001FD20461A
:103620006660FFF795FE0223237001F0B9FD02F0FA
:1036300077FD104B1A689A4204D0996993688A689A
:103640009A4208D3002383F31188019A2B689A4287
:1036500009D102B070BD084801F0E2FCF2E704486D
:1036600001F0DEFCCDE7FEF793FD00BF000B00206C
:1036700090150108288C002080150108000000002A
:103680002DE9F041214D82B02C6801940E46904600
:103690001F46044600B171BB1D4801F0C1FC202348
:1036A00083F3118802F024FD01F05AFD2378022BE8
:1036B00002D0174801F0B4FC03203B464246314695
:1036C00020702046FFF7ACFE01F06AFD02F028FDF5
:1036D000104B1A689A4204D0996993688A689A4292
:1036E0000ED3002383F31188019A2B689A420BD1E1
:1036F00002B0BDE8F081002BCED0002ACFD1CBE7BD
:10370000054801F08DFCECE7FEF742FD000B0020C0
:10371000A0150108288C0020801501080000000079
:103720002DE9F04F394A3A4B126883B001240192D7
:103730001C70002963D04FF00008364CC246C346C7
:10374000C1464746C446434647F6FF7E1DE0AB45AB
:10375000A8BFAB46024432F9026CB2F90450B4423D
:10376000B8BF3446B645A8BFB6464D4545DCA8456A
:10377000A8BFA846B2F90220BA420EDC0433924533
:103780009BB2A8BF924699420CD95D1C6A0030F9E1
:1037900015506545DBDDAC46DCE704339BB299424E
:1037A0001746F2D8A4EB0E04ACEB0B0CA7EB0A0700
:1037B000A9EB0808A4B21FFA8CFCBFB21FFA88F864
:1037C000154A12491480019C0968144BA2F802C0E2
:1037D0009780B0F8F8C4B0F8FA64A2F80680B0F8A0
:1037E000FC54B0F8FE24A3F800C08C425E809D809B
:1037F000DA8008D103B0BDE8F08FA946BAE7884661
:103800000F468C46DCE7FEF7C3FC00BF000B002030
:10381000404900200080FFFF4C490020444900201F
:1038200070B53F4B3F4C1A78236882B0012A019350
:1038300005D0019A23689A4270D102B070BD3A490E
:103840003A4B4D6C45F480354D644E6A002546F484
:1038500080364E624D621D61DD60196A21F0010102
:103860001962996921F003019961996941F0010197
:103870009961996921F0F0019961196A21F00A01B1
:103880001962996921F00C019961996821F0700120
:103890009960996841F050019960996821F48031EC
:1038A00021F007019960996841F007019960196852
:1038B00021F440711960DA629D625A61196A21F03F
:1038C00010011962996921F440719961996921F097
:1038D000807121F4E0419961996941F4C041996195
:1038E000196A21F0A00119629A639A6942F4006290
:1038F0009A611A6A22F480621A621A6A42F011020C
:103900001A621A6842F001021A6020B100906846FB
:1039100000F076F98DE7064B0093F8E7FEF738FCE8
:1039200064990020000B0020003802400040014054
:103930002137000800000000000000000000000027
:1039400070B5114C82B0236801930E4615462023B2
:1039500083F3118802F0FCFB01F042FC0B4B0C4896
:10396000C3E9006502F0BCFC01F05AFC02F008FC5F
:10397000002383F31188019A23689A4201D102B08F
:1039800070BDFEF705FC00BF000B0020685E002044
:10399000544900200000000000000000000000006A
:1039A00070B5114C82B0236801930E461546202352
:1039B00083F3118802F0CCFB01F012FC0B4B0C4896
:1039C000C3E9006502F08CFC01F02AFC02F0D8FB90
:1039D000002383F31188019A23689A4201D102B02F
:1039E00070BDFEF7D5FB00BF000B00204C5C002033
:1039F000544900200000000000000000000000000A
:103A00002DE9F04F624B63499A69634B916185B030
:103A10001B6803935E4B9B6993F821305B0700F1B1
:103A2000AD805E4802F024FC5C4802F021FC584B5B
:103A30009B6993F8212012F0040240F09F80584DBA
:103A400058482B6801680446406805EB830304EB83
:103A5000810103F50279430001F10808019343D085
:103A6000DFF850B1504BDFF85CA1012018F812507C
:103A700018F8006019F8121019F8004005F0550CFC
:103A8000770806F0550613F80CC09E5D01F0550E40
:103A90004CEA061649084FEA540C01F0550104F0AF
:103AA00055040CF0550C6D0813F80EE0595C1C5DC4
:103AB00013F80CC00BF8126005F0550507F0550718
:103AC00041EA0C114EEA041E0AF812E05D5D0AF8A4
:103AD0000010DF5D0199013245EA071591420BF8AC
:103AE000005000F10200C1D1304B31493148324D14
:103AF0000422FCF7BDFC314B314932480422FCF76B
:103B0000B7FC314B314932480422FCF7B1FC314B50
:103B1000314932480422FCF7ABFCDFF8D4C02868F6
:103B20009CF80070224A264900EBC71302F14006B8
:103B300014881C8054885C804C889C80043231F846
:103B4000044BDC80964203F10803F1D1092F11D117
:103B5000234B00221B688CF800204FF420719847FB
:103B60002B68204A204993420B6006BF1F4B2B60F5
:103B70002A604FE701378CF800704BE7064B039A39
:103B80001B689A4202D105B0BDE8F08FFEF700FB3A
:103B9000288C0020C0150108000B0020544900208B
:103BA000685E00204C5C0020300B0020245A00206E
:103BB000E04E0020204F0020B00B00208C5A002047
:103BC000F45A0020345B0020585A0020E24E0020B6
:103BD000214F0020C05A0020F65A0020355B0020FB
:103BE000345C002020500020B40B00202055002021
:103BF000205A00200000000000000000000000002B
:103C00002DE9F04F494A0168494B116085B0002108
:103C10000E461B684748039302F0CAFA4FF4AF619F
:103C2000454B009641224548454DDFF84891454CAB
:103C3000DFF844A1444F01F073FF444B444A18603D
:103C4000136BC5F804A043F480534FF002184FF4EF
:103C50007A5B13632846C5E90298A5F800B0FCF723
:103C60004FFB2046C4E901A9C4F80C80A4F800B0B9
:103C7000FCF746FB05F13400C5E90EA9C5F8408004
:103C8000A5F834B0FCF73CFB324DC4F8408004F199
:103C90003400C4E90EA9A4F834B0FCF731FB314676
:103CA00040F20C4238460AF00BFADFF8D0902A4A6C
:103CB0006E604FF400634FF080082E812A606B81A4
:103CC000264CC5F80C80C7F80894FFF761FC29461C
:103CD0002348244DFFF78CFC07F5027307F1080217
:103CE0004FF480711E48FFF7CBFC314620464FF45D
:103CF00003720AF0E5F91C4B1C4AC4F80892083418
:103D00001A611946C3E900641948C3E9028503F042
:103D10000FFD074B039A1B689A4205D1144805B062
:103D2000BDE8F04F03F04CBDFEF732FA345C0020E2
:103D3000000B002054490020013A00086849002087
:103D4000245A00208C5A0020685E00206049002020
:103D500000380240585E0020413900084C5C0020C9
:103D60000C490020A1390008385C00202C03080011
:103D700064990020000020410000FA45EFBEADDE4E
:103D800000B5074B07491A68087083B00192019A81
:103D90001B689A4202D103B05DF804FBFEF7F8F904
:103DA000000B0020746200200000000000000000F2
:103DB00010B50B4C0B48236882B0019302F0B8FB9E
:103DC000094802F095FD019A23689A4205D10548F9
:103DD00002B0BDE8104002F0E3BBFEF7D9F900BF26
:103DE000000B0020C00B0020B80B002000000000DA
:103DF00070B5294D82B02B6801930E46032841D837
:103E0000DFE800F01A120A02012922D9234A536975
:103E100083F40063536116E0012926D91F4A5369D0
:103E200083F4806353610EE0012918D91B4A53695A
:103E300083F04003536106E001291CD9174A5369F6
:103E400083F020035361019A2B689A4218D102B083
:103E500070BD124B4FF4006229B15A83F3E70F4B48
:103E600040220029F9D11A83EDE70C4B4FF4806210
:103E70000029F8D0F1E7094B20220029F3D0ECE724
:103E8000FEF786F90024E0B231460134FFF7B0FFB7
:103E9000042CF8D1D7E700BF000B0020000C024033
:103EA00070B5094D094E2C6882B000EB40000194BA
:103EB000315434180198296862708842A37001D186
:103EC00002B070BDFEF764F9000B0020786200209C
:103ED000F0B50D4F0D4C3B6883B0002501932E4685
:103EE000E8B200210135FFF783FF042D26706670CC
:103EF000A67004F10304F3D1019A3B689A4201D100
:103F000003B0F0BDFEF744F9000B002078620020FA
:103F100030B5094B094D044607CB83B02B6801939C
:103F2000206001982B6861609842A26001D103B0C3
:103F300030BDFEF72DF900BF78620020000B002095
:103F40002DE9F043254E83B034680194042A9DF88E
:103F50002890144605460F46984639D9B9F1000F06
:103F600014BF00224FF08052640002EB0863013C52
:103F70001C4405F00F0527F01F07202383F3118849
:103F800002F0B6F83D4301F0EBF8154B1035DD605B
:103F90001C6101F005F902F0C3F8124B1A689A424D
:103FA00004D0996993688A689A420DD3002383F3F9
:103FB0001188BFF36F8FBFF34F8F019A33689A4216
:103FC0000AD103B0BDE8F083074801F029F8EDE716
:103FD000064801F025F8C1E7FEF7DAF8000B0020EB
:103FE00090ED00E0288C00205016010830160108E2
:103FF00030B5224D224C2B68224A85B0039363686A
:1040000043F004036360536A43F480335362202314
:1040100083F3118802F06CF801F0A2F817221A4B12
:10402000E260236101F0BCF802F07AF8174B1A68DD
:104030009A4204D0996993688A689A4218D30020FA
:1040400080F31188BFF36F8FBFF34F8F03231D22BF
:1040500000904FF00051FFF773FF094A536843F097
:1040600001035360039A2B689A4205D105B030BD15
:10407000074800F0D5FFE2E7FEF78AF8000B0020C2
:1040800090ED00E000ED00E009000010288C002019
:1040900050160108000000000000000000000000B1
:1040A00070B51A4D1A4C1B4E0FCD0FC49EB02A6826
:1040B000336822801D93EFF30981682203A8FDF77E
:1040C0002FFE154B9D6AAA0714D4EB0708D5124B97
:1040D00008995B6B114A00910D4880210AF040F865
:1040E0001D9A33689A420FD109481EB0BDE870404E
:1040F00000F096BF099A5B6B0092A4F11000084A89
:1041000080210AF02DF8E0E7FEF742F814160108C6
:1041100084620020000B002000ED00E0F015010893
:10412000D0150108000000000000000000000000A1
:1041300000B51F4B0278196883B00191E2B11D4AA6
:104140004FF4005111834278EAB11A4A4FF480517A
:1041500011838278F2B1174A4FF480411183C278FB
:10416000FAB9144A4FF400415183019A1B689A42EC
:104170001CD103B05DF804FB0E4A4FF4005151838B
:104180004278002AE1D10B4A4FF480515183827862
:10419000002AE0D1074A4FF480415183C278002AB7
:1041A000DFD0044A4FF400411183DEE7FDF7F0FF52
:1041B000000B002000100240000000000000000082
:1041C00000B51F4B0278196883B00191E2B11D4A16
:1041D0004FF4007111834278EAB11A4A4FF48071AA
:1041E00011838278F2B1174A4FF400611183C278CB
:1041F000FAB9144A4FF480615183019A1B689A42BC
:104200001CD103B05DF804FB0E4A4FF400715183DA
:104210004278002AE1D10B4A4FF4807151838278B1
:10422000002AE0D1074A4FF400615183C278002A86
:10423000DFD0044A4FF480611183DEE7FDF7A8FF69
:10424000000B0020001002400000000000000000F1
:1042500030B50C4A0C4B116883B04FF400550191F6
:104260004FF480544FF400414FF480405D835C83F1
:104270005883598301991368994201D103B030BD25
:10428000FDF786FF000B0020001002400000000038
:1042900030B50C4A0C4B116883B04FF40075019196
:1042A0004FF480744FF480614FF400605D835C8351
:1042B0005883598301991368994201D103B030BDE5
:1042C000FDF766FF000B0020001002400000000018
:1042D00010B50B4C0B48236882B099220021019342
:1042E00003F07EFB019A23689A4206D1054800211B
:1042F00002B0BDE8104003F05BBCFDF749FF00BF12
:10430000000B0020F89900200000000000000000D1
:1043100010B50B4C0B48236882B099220021019301
:1043200003F05EFB019A23689A4206D105480021FA
:1043300002B0BDE8104003F03BBCFDF729FF00BF11
:10434000000B0020149A0020000000000000000074
:1043500000B5084B83B01A680192019A1B689A4213
:1043600006D10548002103B05DF804EB03F088BBDB
:10437000FDF70EFF000B0020F89900200000000060
:1043800000B5084B83B01A680192019A1B689A42E3
:1043900006D10548002103B05DF804EB03F070BBC3
:1043A000FDF7F6FE000B0020149A0020000000002C
:1043B00070B51A4C1A4E2378326882B0022B0192E3
:1043C000A26811D165781748013505F0070500EBA3
:1043D0008500904763686570013B6360019A3368AC
:1043E0009A4219D102B070BD012B08D001993368EF
:1043F000994211D10C4802B0BDE870401047657871
:104400000848013D05F0070500EB8500904763680B
:10441000657001336360E1E7FDF7BAFE1C630020BD
:10442000000B0020F0160108E01601080000000053
:1044300070B51A4C1A4E2378326882B0012B019263
:10444000A26811D165781748013505F0070500EB22
:10445000850090476368657001336360019A336833
:104460009A4219D102B070BD022B08D0019933686D
:10447000994211D10C4802B0BDE8704010476578F0
:104480000848013D05F0070500EB8500904763688B
:104490006570013B6360E1E7FDF77AFE046300208D
:1044A000000B0020F0160108E016010800000000D3
:1044B00030B51F4D85B02B68039340F24C439942B1
:1044C000044626DCA3F69803994211DB4B00002B2F
:1044D00029D10370036998474FF47A71039A2B68C6
:1044E0009A421ED1606905B0BDE8304003F030BA91
:1044F000104B02225B42227040F2892293420E4905
:1045000091FBF3F189B207DC0191E36898470199C7
:10451000E4E7012303702D21019123699847019954
:10452000DCE7FDF735FEE4DD01220270E4E700BFC1
:10453000000B002068F7FFFFA086010000000000CC
:1045400000B5084B83B01A680192019A1B689A4221
:1045500006D10146044803B05DF804EBFFF7A8BF9D
:10456000FDF716FE000B0020046300200000000091
:1045700000B5084B83B01A680192019A1B689A42F1
:1045800006D10146044803B05DF804EBFFF790BF85
:10459000FDF7FEFD000B00201C6300200000000062
:1045A00000B5094B094A1968506883B000EBD07018
:1045B0000191019A1B689A4203D1401003B05DF843
:1045C00004FBFDF7E5FD00BF000B002004630020A5
:1045D00000B5094B094A1968506883B000EBD070E8
:1045E0000191019A1B689A4203D1401003B05DF813
:1045F00004FBFDF7CDFD00BF000B00201C63002075
:1046000000B5084B08491A6883B040000192019A2E
:104610001B6848609A4202D103B05DF804FBFDF7C5
:10462000B7FD00BF000B0020046300200000000065
:1046300000B5084B08491A6883B040000192019AFE
:104640001B6848609A4202D103B05DF804FBFDF795
:104650009FFD00BF000B00201C6300200000000035
:1046600070B51D4E1D4A1E4B30681E491E4C916090
:1046700082B00021D46001901C4C1D481D4D9D60EE
:10468000117051705160106154611B481B4A1C4DE0
:10469000D8601C48197059705960C3E90425FFF7A8
:1046A00047FD1848FFF78CFD1749204603F000F935
:1046B000204603F035FA2846144903F0F9F8019A28
:1046C00033689A4205D1284602B0BDE8704003F035
:1046D00027BAFDF75DFD00BF000B00201C63002022
:1046E0000463002031410008D1420008F8990020FD
:1046F00051430008C14100081143000881430008EC
:10470000149A0020E0160108A0160108601601089E
:104710000A490B4B09680B4A82B0202001914021C5
:1047200058834FF4806559834FF400644FF4804000
:1047300004215D835C8358835183FEE7000B0020D6
:10474000000C0240000402400000000000000000D5
:1047500010B51E491E4A0B78106882B0013B0190CB
:10476000072B0AD8DFE803F012151C1F26290F04B7
:1047700018480824012304830B7001991368994297
:1047800021D102B010BD08230B70F6E702230B7095
:10479000F3E711484FF48054032304830B70ECE7D4
:1047A00004230B70E9E70C484FF48044052304838D
:1047B0000B70E2E706230B70DFE7064804240723AB
:1047C00004830B70D9E7FDF7E3FC00BFB06600205F
:1047D000000B002000100240000402400000000016
:1047E00030B50C4B0C4918680C4A83B04FF4804527
:1047F00001904FF480504883042408204D83548353
:104800005083019A1B689A4201D103B030BDFDF775
:10481000BFFC00BF000B002000040240001002405B
:104820002DE9F04F4E4B4F4A9B694F499961A5B016
:1048300007AE05AD80231768009331462A46002451
:104840000CA84A4B2397CDE90766CDE90555CDE97C
:1048500009440B9400F0B4FA0CA9454A4548434C6E
:10486000454DDFF83481DFF834B1DFF834A100F0D2
:10487000CFFA04F11C0604F16007A146504601F08E
:10488000F7FC2A682B69226063602A6A2B6BA2609E
:10489000E3606A686B69226163616A6A6B6BA2613B
:1048A000E361AA68AB6922626362AA6AAB6BA26227
:1048B000E362EA68EB6922636363EA6AEB6B2F49A0
:1048C000A263E36351F8043F0A6AB142A3EB020317
:1048D0000B64F7D1802249460CA800F0C9FA98F879
:1048E0000030002BCAD09BF8003033B3012BC5D168
:1048F000DFF8B0C02248614650F8042B51F8043F5D
:10490000B84213440B60F7D11E4A13780133DBB26F
:10491000642B1370B2D11C495CF8043F1B4A82FB24
:104920000302DB17C3EB621341F8043B184B9C45B1
:10493000F2D1002388F80030A0E71946202212485F
:10494000039309F0BDFB039B12481946202209F08E
:10495000B7FB0C49039B0B7001228BF800208DE7FD
:10496000288C0020000B002010170108B8630020DD
:1049700050170108AC15002054630020B4630020D8
:10498000F863002095630020186400201F85EB5118
:10499000B463002098630020946300209663002095
:1049A000D40B0020946300200000000000000000F1
:1049B00070B502691E4D52882B6882B006460C46BF
:1049C0001C4801939200002109F07AFB33695B884F
:1049D0005BB1184AA11E002331F8020F42F8040B04
:1049E0003069408801339842F6D8202383F3118838
:1049F00001F0AEFB00F0F4FB00F082FC0E4883688F
:104A0000002B0FDD00F00CFC01F0BAFB002383F358
:104A10001188019A2B68094901209A42087004D133
:104A200002B070BD01F05CFCECE7FDF7B1FB00BF2C
:104A3000000B002054630020D40B0020B06600203F
:104A400070B51F4D1F4C2E78236884B0012E039340
:104A500005D0039A23689A422FD104B070BD00217B
:104A6000284602F04DFC284602F00AFD334628464F
:104A7000154A164902F0C4FC1549164802F018FF01
:104A80004FF496720021134802F0AAFF002111484A
:104A900003F08EF80F4803F043F831464FF482726A
:104AA0000C4802F09DFF0023009340220A4B0B4864
:104AB0004FF41E7101F034F8CBE7FDF769FB00BF3E
:104AC00084930020000B002034630020201701088D
:104AD00060170108DC990020214800083864002094
:104AE00030B50C4D0C4A2B680C4C83B0002101935F
:104AF000012311702370142001F06AF82378002B31
:104B0000F9D1019A2B689A4201D103B030BDFDF76B
:104B10003FFB00BF000B0020966300209463002041
:104B200010B50E4A82B013680193072811D80C49BA
:104B300000F1180300F1100451F8233051F824005B
:104B4000C01A20EAE07001991368994203D102B0BB
:104B500010BD0020F7E7FDF71BFB00BF000B002096
:104B6000B86300200000000000000000000000000A
:104B700080B5164A164B9269164E17491B68DFF826
:104B80006480164D164C916182B0374601932846D9
:104B9000FFF7BEF9204603F0FBFD3B462A460C21F9
:104BA000204603F075FE204603F032FE3078FFF712
:104BB000E7F898F80030033B012B4FF0140002D9BE
:104BC00001F006F8E3E7FFF7F3F8E0E7288C0020B0
:104BD000000B0020B4660020B0170108287C0020DC
:104BE00084990020F8480020000000000000000028
:104BF00010B50C4C0C4923680C4884B0039303F0A7
:104C00007FFD002300934122094B0A484FF4AF6116
:104C100000F086FF039A23689A4201D104B010BDC8
:104C2000FDF7B6FA000B0020A017010884990020B8
:104C3000714B0008B076002000000000000000006A
:104C400000B5084B83B01A680192019A1B689A421A
:104C500005D1054803B05DF804EB01F069BCFDF730
:104C600097FA00BF000B0020E00B002000000000BE
:104C700000B5084B83B01A680192019A1B689A42EA
:104C800005D1054803B05DF804EB01F089BCFDF7E0
:104C90007FFA00BF000B0020E00B002000000000A6
:104CA00070B50D4C82B0236801930D1E06460DDDD4
:104CB000284602F045F918B90C2333604FF0FF3055
:104CC000019A23689A4205D102B070BD034800F0F2
:104CD000A7F9EDE7FDF75CFA000B0020C01701080B
:104CE00000B5064B83B01A680192019A1B689A427C
:104CF00002D103B05DF804FBFDF74AFA000B002077
:104D000000B5074B83B01A680192019A1B689A425A
:104D100004D103B05DF804EB01F00ABCFDF738FAEA
:104D2000000B002000000000000000000000000058
:104D300000B5074B83B01A680192019A1B689A422A
:104D400004D103B05DF804EB01F02ABCFDF720FAB2
:104D5000000B002000000000000000000000000028
:104D600000B5074B83B01A680192019A1B689A42FA
:104D700004D103B05DF804EB01F03ABDFDF708FA89
:104D8000000B0020000000000000000000000000F8
:104D900010B5084B82B01C68019400240460019C8B
:104DA0001B689C42C0E9011201D102B010BDFDF7A1
:104DB000EFF900BF000B0020000000000000000021
:104DC0002DE9F0430E4D83B02C68019404469946BA
:104DD0000F46164610304C220021DDF8288009F0DD
:104DE0006FF9C4F80090019A2B68E6609A42C4E912
:104DF000018702D103B0BDE8F083FDF7C9F900BF18
:104E0000000B002000000000000000000000000077
:104E1000F0B5144E83B001F11003174632680192C9
:104E20000446412218460D46002109F049F9394649
:104E3000402209F0DDF96068FFF762FF236803B1E3
:104E4000AB652560A068FFF78BFF019A33689A4233
:104E500005D1606803B0BDE8F040FFF769BFFDF71A
:104E600097F900BF000B00200000000000000000C8
:104E7000F0B51C4E436883B00546934230680190FC
:104E800006D20020019A33689A4229D103B0F0BDBE
:104E900014460F46A868FFF733FF224639462868B4
:104EA000FCF73EFF012385F85130E868FFF758FF13
:104EB0006C6D84B123681868FFF722FF23689D603A
:104EC00023685868FFF74CFF23681868FFF730FF26
:104ED0006468002CEED1A868FFF72AFF0120D1E713
:104EE000FDF756F9000B0020000000000000000054
:104EF00000B5064B83B01A680192019A1B689A426A
:104F000002D103B05DF804FBFDF742F9000B00206D
:104F1000024B82B01B680193FEE700BF000B00202C
:104F200000B5044B04481B6883B0019300F078F887
:104F3000FEE700BF000B0020D017010800000000B2
:104F4000024B82B01B680193FEE700BF000B0020FC
:104F5000F0B5294E294B3268294885B000240392C8
:104F60009C60D968274A4FF6FF0529400A43DA605A
:104F7000C2682549254D42F08072C2600A6842F03D
:104F800001020A6010202022D87783F8222000F046
:104F9000DFFA00F045FA00F0FBFF01F0A9FF02F094
:104FA00017F801F04DF800F0FBF9402105F5886095
:104FB00000F01EFD0127164BC36180F82070A86128
:104FC00000F0A6F884F3118862B6AB69114A9A61C1
:104FD0004FF4C4713A46104B009405F59D6000F003
:104FE0009FFD039A33680D4981619A4201D105B052
:104FF000F0BDFDF7CDF800BF000B002000ED00E094
:10500000F0ED00E00003FA05001000E0288C00201D
:105010000004002050190108414F0008F017010852
:1050200000B5054B83B01B680193044672B6FFF7C9
:105030006FFB024BDC62FEE7000B0020288C002097
:105040002DE9F047DFF890A0224DDAF8003082B069
:10505000019300F055F9AB6993F8232012B1013A9E
:1050600083F823205A6ADFF8748001325A6200F014
:1050700047F9AB6AEA6901334245AB6220D09368D5
:10508000013B9360EC69A668D6B94FF0200923680C
:10509000E768E660C3F804802368EB6100F0C0F8BD
:1050A00001F06EF886F311882069B84789F31188FA
:1050B00001F04EF800F094F8EC69A368002BE6D0FC
:1050C000019ADAF800309A4202D102B0BDE8F087C6
:1050D000FDF75EF8288C0020000B0020448C002097
:1050E00010B5094C094A236882B00193516853688E
:1050F0005B1A9842FBD8019A23689A4201D102B008
:1051000010BDFDF745F800BF000B0020001000E0C7
:1051100000B50E4A0E4B116B186883B0019009B9A7
:10512000526B4AB1019A1B689A420CD1094803B0EC
:105130005DF804EBFFF774BF019A1B689A4202D135
:1051400003B05DF804FBFDF723F800BF288C0020B6
:10515000000B002000180108000000000000000003
:1051600030B50B4C0B4D236B2A6883B001920BB901
:10517000636B13B10848FFF753FF019A2B680121B5
:105180009A42616301D103B030BDFDF701F800BF61
:10519000288C0020000B00203018010800000000BF
:1051A00030B50C4C0C4D236B2A6883B0019253B977
:1051B000636B002B07DD019A2B6800219A42616323
:1051C00005D103B030BD0548FFF72AFFF3E7FCF730
:1051D000DFFF00BF288C0020000B002050180108C2
:1051E00030B50B4C0B4D236B2A6883B0002B01921A
:1051F00001DD636B13B10848FFF712FF019A2B68BA
:1052000001219A42616301D103B030BDFCF7C0FFB8
:10521000288C0020000B002040180108000000002E
:1052200030B50C4C0C4D236B2A6883B0002B0192D7
:105230000ADD636B002B07DD019A2B6800219A427F
:10524000616305D103B030BD0448FFF7E9FEF3E721
:10525000FCF79EFF288C0020000B0020601801083E
:1052600030B50F4D83B02B680193202383F3118851
:105270000C4C236B002B01DB626B1AB10A48FFF761
:10528000CFFE236B01332363002383F31188019A3C
:105290002B689A4201D103B030BDFCF779FF00BF03
:1052A000000B0020288C00201018010800000000CE
:1052B00030B50F4D83B02B680193202383F3118801
:1052C0000C4C236B002B01DD626B1AB10A48FFF70F
:1052D000A7FE236B013B2363002383F31188019A0C
:1052E0002B689A4201D103B030BDFCF751FF00BFDB
:1052F000000B0020288C002020180108000000006E
:1053000000B50F4A0F4B116B186883B0002901904C
:1053100009DB526B002A06DD019A1B689A420CD108
:1053200003B05DF804FB019A1B689A4205D1064858
:1053300003B05DF804EBFFF773BEFCF729FF00BF75
:10534000288C0020000B00207018010800000000CD
:1053500000B50E4A0E4B116B186883B0019049B925
:10536000526B002A06DD019A1B689A420CD103B0E9
:105370005DF804FB019A1B689A4205D1054803B009
:105380005DF804EBFFF74CBEFCF702FF288C002011
:10539000000B002080180108000000000000000041
:1053A00010B5084A084B116882B040240191019958
:1053B000126818199142C3E90E4001D102B010BD24
:1053C000FCF7E6FE000B0020288C00200000000007
:1053D00010B51149114B0A6882B00192DA6B9C6AD0
:1053E0001460DA6B9C695460DA6B846A9460DA6BDF
:1053F00090F820001073DA6B03F588601032824257
:1054000028BF03F14002DA63019A0B689A4201D186
:1054100002B010BDFCF7BCFE000B0020288C002061
:1054200010B50B4A0B4B116882B04FF0FF3401915D
:1054300000219962019811685C6203F11C028842A4
:10544000C3E9072201D102B010BDFCF7A1FE00BFE5
:10545000000B0020288C002000000000000000004D
:105460002DE9F041184E82B00546306801900C4697
:1054700017469846FFF744FF05B3FFB1F4B1C5E9FD
:1054800003781248C3699A68944204D91B68A41A25
:105490009A68A242FAD32B605A686A6015605D6010
:1054A000AC609968019D3268091B95424FF0FF344A
:1054B0009960446206D102B0BDE8F0810448FFF76C
:1054C000AFFDDCE7FCF764FE000B0020288C002019
:1054D000901801080000000000000000000000001B
:1054E00030B5164D83B004462B680193FFF708FFD3
:1054F000ECB1E368BBB12268A068936801990344EA
:105500009360D4E900231A6020682B680C4A656810
:10551000456099424FF000054FF0FF30E560506262
:1055200009D103B030BD0748FFF77AFDE3E705482E
:10553000FFF776FDDDE7FCF72BFE00BF000B002038
:10554000288C0020A01801080000000000000000C6
:1055500000B50A4A0A4B11681B6083B00020019114
:10556000019912685B609142C3E90433986002D1EB
:1055700003B05DF804FBFCF70BFE00BF000B00203E
:10558000288C002000000000000000000000000047
:1055900030B5164D83B004462B680193FFF7B0FE7B
:1055A000ECB194F82030B3B10F2B14D00022A168D5
:1055B0000F4B84F820201B689A688A42FBD2236034
:1055C0005A686260146001992A685C6091422046C2
:1055D00009D103B030BD0748FFF722FDE6E70548D3
:1055E000FFF71EFDDDE7FCF7D3FD00BF000B002039
:1055F000288C0020B0180108000000000000000006
:1056000070B5204D82B02B6801930446202383F3AC
:10561000118800F09DFDFFF7E3FD94F82030072B83
:1056200011D8DFE803F0161010230A04100AA66A46
:10563000FFF766FEB3680133B360D4E900231A6054
:10564000D4E900325A604FF0FF33A3622046FFF7DF
:105650009FFFFFF7E5FD00F093FD002383F3118822
:10566000019A2B689A420BD102B070BDA36A002246
:105670001A604FF0FF33A3622046FFF789FFE8E787
:10568000FCF786FD000B0020000000000000000079
:10569000F0B5194E194C336883B007460193FFF7F4
:1056A00057FEA569236885F82070142285F8232009
:1056B0001A68226001215460284683F82010A361F3
:1056C000FFF786FE2946A06900F0F2FCEFF309839C
:1056D000EA69643B9A4202D90948FFF7A1FC019AA2
:1056E00033689A4206D1A069294603B0BDE8F0406C
:1056F000FAF7DEBDFCF74CFD000B0020288C0020E3
:10570000C0180108000000000000000000000000B8
:10571000F0B5154C87B0236805930E460746FFF792
:1057200017FE731C18D0114D114AAB6931466846FB
:10573000FFF796FE3846FFF7ABFFFFF7E1FD039B4F
:1057400013B16846FFF7CCFE059A2368A9699A420F
:10575000886A06D107B0F0BD3846FFF799FF034DC0
:10576000F2E7FCF715FD00BF000B0020288C00209D
:1057700001560008000000000000000000000000CA
:10578000F0B51E4D1E4E2B6883B0044601930F46A4
:10579000FFF7DEFDB069A7628368A2689A421DD94F
:1057A000FFF7F6FE0123074684F82030B461FFF7C7
:1057B0000FFE3946204600F07BFCEFF30983FA69BF
:1057C000643B9A4214D8019A2B689A4214D1394604
:1057D000204603B0BDE8F040FAF76ABD019A2B6895
:1057E0009A4209D1204603B0BDE8F040FFF7D0BE91
:1057F0000448FFF715FCE6E7FCF7CAFC000B0020A5
:10580000288C0020C01801080000000000000000E3
:1058100010B50E490E4B8A69086892F823101C686F
:105820008068926882B0019449B9904234BF0020E8
:105830000120019A1B689A4206D102B010BD904225
:1058400094BF00200120F4E7FCF7A2FC288C002084
:10585000000B00200000000000000000000000001D
:1058600070B5184C184E2368A5691A6822605460F8
:10587000012283F8202082B01422316885F8232089
:105880002846A3610191FFF783FE2846FFF7A0FD9C
:105890002946A06900F00CFCEFF30983EA69643B38
:1058A0009A4202D90948FFF7BBFB019A33689A4232
:1058B00006D1A069294602B0BDE87040FAF7F8BCED
:1058C000FCF766FC288C0020000B0020C0180108A3
:1058D00070B51C4D1C4E2A68AC6913682B60012101
:1058E00082B05D60002082F82010AA613268A16851
:1058F00084F82000019200E01B689A688A42FBD875
:1059000023605A686260204614605C60FFF760FDA7
:105910002146A86900F0CCFBEFF30983E269643B00
:105920009A4202D90948FFF77BFB019A33689A42F1
:1059300006D1A869214602B0BDE87040FAF7B8BCAC
:10594000FCF726FC288C0020000B0020C018010862
:1059500010B50F4C82B023680193FFF7F9FCFFF7F5
:10596000CFFC0C4B1A689B6992689B689A42019A1B
:10597000236803D89A4208D102B010BD9A4204D1DC
:1059800002B0BDE81040FFF7A3BFFCF701FC00BF69
:10599000000B0020288C0020000000000000000008
:1059A00000B50E4A0E4B9269196892F8232083B015
:1059B000019142B1019A1B689A420DD103B05DF882
:1059C00004EBFFF785BF019A1B689A4204D103B02C
:1059D0005DF804EBFFF744BFFCF7DAFB288C0020EE
:1059E000000B00200000000000000000000000008C
:1059F000F0B51A4A1A4D02610446816083B014233F
:105A000050692E68616484F8233002270023012145
:105A1000278484F82210C4E90F3304F16801A361DC
:105A2000019604F12C07636204F1500604F130037F
:105A300060610461C4E90C33E1613046E76254619E
:105A400000F03EFA304600F05BFA019A2B689A4269
:105A500002D1204603B0F0BDFCF79AFB288C002051
:105A6000000B00200000000000000000000000000B
:105A700010B5094B82B01C680194884203D200F82B
:105A8000012B8142FBD1019A1B689A4201D102B0DD
:105A900010BDFCF77DFB00BF000B002000000000E4
:105AA0002DE9F043184E83B0346801940546DDF8C3
:105AB00028900C4617469846FFF722FC15B1B4F51E
:105AC000BC7F19D21148FFF7ABFAA4F16401294455
:105AD000E960C1F84080EB68019AC3F844903368EC
