:020000040800F2
:1000000000040020C1010008A1290008A12900085E
:10001000B11B0008A1290008A1290008A129000896
:10002000A1290008A1290008A129000861480008A9
:10003000A1290008A1290008A1290008E1970008CA
:10004000A129000891750008217700087177000840
:10005000A1290008A1290008D17200082173000815
:1000600071730008C173000811740008A1650008CD
:10007000F16500084166000891660008E166000825
:1000800031670008816700081170000811790008C5
:1000900081790008317A0008E17A0008617400086B
:1000A000A1290008A129000891920008A1290008AF
:1000B000A1930008E193000821940008E18600085C
:1000C00021880008A1290008A1290008A129000809
:1000D000A1290008A1290008A1290008A198000869
:1000E000F1740008E175000831760008A1290008C4
:1000F000A1290008A1290008A1290008D16700084A
:10010000A1290008717C000861940008A129000859
:10011000A1290008A129000851920008A12900087E
:100120002168000871680008C168000811690008AA
:1001300061690008A129000881760008A12900084A
:10014000A1290008A1290008A1290008918E000812
:10015000B1690008016A0008516A0008A129000875
:10016000A1290008A1290008A1290008A129000847
:10017000D1760008A1290008A1190008A1290008CA
:10018000A1290008A1290008A1290008A129000827
:10019000A1290008A1290008A1290008A129000817
:1001A000A1290008A1290008A1290008A129000807
:1001B000A1290008A1290008A1290008A1290008F7
:1001C00072B62E4880F3098840F20000CCF200009D
:1001D0004EF63471CEF20001086040F20000C0F229
:1001E000F0004EF68851CEF2000108604FF000009A
:1001F000E1EE100A4EF63C71CEF2000108600620D6
:1002000080F31488BFF36F8F09F092FC4FF05530E4
:100210001B491C4A91423CBF41F8040BFAE71A49BA
:10022000164A91423CBF41F8040BFAE71749184AB5
:10023000184B9A423EBF51F8040B42F8040BF8E702
:1002400000201549154A91423CBF41F8040BFAE7DA
:1002500002F08EFB124C134DAC4203DA54F8041B2F
:100260008847F9E700F0D4FF0F4C104DAC4203DA99
:1002700054F8041B8847F9E702F08ABB0008002005
:1002800000000020000400200004002068E30008B3
:1002900000080020FC11002000120020D02A0020BD
:1002A000C0010008C0010008C0010008C00100082A
:1002B0002DE9F04F2DED108AC1F80CD0D0F80CD0FC
:1002C000BDEC108ABDE8F08F02F0AAFC03F068FCD8
:1002D000002383F311882846A047002003F030FA5A
:1002E00003F046FC02F07CFC03F09AF802F098FC64
:1002F00003F056FC00DFFEE70000000000000000F5
:1003000081F0004102E000BF83F0004330B54FEAC6
:1003100041044FEA430594EA050F08BF90EA020F33
:100320001FBF54EA000C55EA020C7FEA645C7FEAC6
:10033000655C00F0E2804FEA5454D4EB5555B8BFE9
:100340006D420CDD2C4480EA020281EA030382EA5A
:10035000000083EA010180EA020281EA0303362DEC
:1003600088BF30BD11F0004F4FEA01314FF4801CBF
:100370004CEA113102D0404261EB410113F0004FD1
:100380004FEA03334CEA133302D0524263EB430388
:1003900094EA050F00F0A780A4F10104D5F1200E26
:1003A0000DDB02FA0EFC22FA05F2801841F1000181
:1003B00003FA0EF2801843FA05F359410EE0A5F155
:1003C00020050EF1200E012A03FA0EFC28BF4CF086
:1003D000020C43FA05F3C01851EBE37101F000453C
:1003E00007D54FF0000EDCF1000C7EEB00006EEB49
:1003F0000101B1F5801F1BD3B1F5001F0CD34908D3
:100400005FEA30004FEA3C0C04F101044FEA445229
:1004100012F5800F80F09A80BCF1004F08BF5FEAB0
:10042000500C50F1000041EB045141EA050130BD90
:100430005FEA4C0C404141EB010111F4801FA4F133
:100440000104E9D191F0000F04BF01460020B1FA88
:1004500081F308BF2033A3F10B03B3F120020CDAC0
:100460000C3208DD02F1140CC2F10C0201FA0CF09E
:1004700021FA02F10CE002F11402D8BFC2F1200C03
:1004800001FA02F120FA0CFCDCBF41EA0C019040B9
:10049000E41AA2BF01EB0451294330BD6FEA040402
:1004A0001F3C1CDA0C340EDC04F11404C4F12002ED
:1004B00020FA04F001FA02F340EA030021FA04F3FF
:1004C00045EA030130BDC4F10C04C4F1200220FA56
:1004D00002F001FA04F340EA0300294630BD21FA94
:1004E00004F0294630BD94F0000F83F4801306BF5A
:1004F00081F480110134013D4EE77FEA645C18BF4E
:100500007FEA655C29D094EA050F08BF90EA020FE4
:1005100005D054EA000C04BF1946104630BD91EADC
:10052000030F1EBF0021002030BD5FEA545C05D1DF
:100530004000494128BF41F0004130BD14F580041E
:100540003CBF01F5801130BD01F0004545F0FE4192
:1005500041F470014FF0000030BD7FEA645C1ABFC7
:10056000194610467FEA655C1CBF0B46024650EAFE
:10057000013406BF52EA033591EA030F41F400212A
:1005800030BD00BF90F0000F04BF0021704730B5B0
:100590004FF4806404F132044FF000054FF0000185
:1005A00050E700BF90F0000F04BF0021704730B546
:1005B0004FF4806404F1320410F0004548BF40421B
:1005C0004FF000013EE700BF42004FEAE2014FEA70
:1005D00031014FEA02701FBF12F07F4393F07F4F4B
:1005E00081F06051704732F07F4208BF704793F04E
:1005F0007F4F04BF41F40021704730B54FF4607461
:1006000001F0004521F000411CE700BF50EA010263
:1006100008BF704730B54FF000050AE050EA01020C
:1006200008BF704730B511F0004502D5404261EB7C
:1006300041014FF4806404F132045FEA915C3FF4BD
:10064000D8AE4FF003025FEADC0C18BF03325FEA5A
:10065000DC0C18BF033202EBDC02C2F1200300FA0B
:1006600003FC20FA02F001FA03FE40EA0E0021FA30
:1006700002F11444BDE600BF0000000000000000CD
:1006800070B54FF0FF0C4CF4E06C1CEA11541DBF28
:100690001CEA135594EA0C0F95EA0C0F00F0DEF8F3
:1006A0002C4481EA030621EA4C5123EA4C5350EAD8
:1006B000013518BF52EA033541F4801143F4801329
:1006C00038D0A0FB02CE4FF00005E1FB02E506F0BA
:1006D0000042E0FB03E54FF00006E1FB03569CF00F
:1006E000000F18BF4EF0010EA4F1FF04B6F5007F15
:1006F00064F5407404D25FEA4E0E6D4146EB060687
:1007000042EAC62141EA55514FEAC52040EA5E500F
:100710004FEACE2EB4F1FD0C88BFBCF5E06F1ED8B9
:10072000BEF1004F08BF5FEA500E50F1000041EBF0
:10073000045170BD06F0004646EA010140EA02009D
:1007400081EA0301B4EB5C04C2BFD4EB0C0541EABF
:10075000045170BD41F480114FF0000E013C00F3D4
:10076000AB8014F1360FDEBF002001F0004170BDF8
:10077000C4F10004203C35DA0C341BDC04F1140411
:10078000C4F1200500FA05F320FA04F001FA05F29D
:1007900040EA020001F0004221F0004110EBD3706A
:1007A00021FA04F642EB06015EEA430E08BF20EA96
:1007B000D37070BDC4F10C04C4F1200500FA04F339
:1007C00020FA05F001FA04F240EA020001F00041CB
:1007D00010EBD37041F100015EEA430E08BF20EA3E
:1007E000D37070BDC4F1200500FA05F24EEA020E86
:1007F00020FA04F301FA05F243EA020321FA04F0B5
:1008000001F0004121FA04F220EA020000EBD3706B
:100810005EEA430E08BF20EAD37070BD94F0000F6B
:100820000FD101F00046400041EB010111F4801F9F
:1008300008BF013CF7D041EA060195F0000F18BF50
:10084000704703F00046520043EB030313F4801F8C
:1008500008BF013DF7D043EA0603704794EA0C0F46
:100860000CEA135518BF95EA0C0F0CD050EA41065C
:1008700018BF52EA4306D1D181EA030101F00041D9
:100880004FF0000070BD50EA410606BF1046194601
:1008900052EA430619D094EA0C0F02D150EA01360D
:1008A00013D195EA0C0F05D152EA03361CBF10464E
:1008B00019460AD181EA030101F0004141F0FE41ED
:1008C00041F470014FF0000070BD41F0FE4141F471
:1008D000780170BD70B54FF0FF0C4CF4E06C1CEA71
:1008E00011541DBF1CEA135594EA0C0F95EA0C0F26
:1008F00000F0A7F8A4EB050481EA030E52EA0335E1
:100900004FEA013100F088804FEA03334FF0805501
:1009100045EA131343EA12634FEA022245EA11152E
:1009200045EA10654FEA00260EF000419D4208BFDF
:10093000964244F1FD0404F5407402D25B084FEA8C
:100940003202B61A65EB03055B084FEA32024FF438
:1009500080104FF4002CB6EB020E75EB030E22BF95
:10096000B61A754640EA0C005B084FEA3202B6EB55
:10097000020E75EB030E22BFB61A754640EA5C0004
:100980005B084FEA3202B6EB020E75EB030E22BF94
:10099000B61A754640EA9C005B084FEA3202B6EB95
:1009A000020E75EB030E22BFB61A754640EADC0054
:1009B00055EA060E18D04FEA051545EA16754FEAB6
:1009C00006164FEAC30343EA52734FEAC2025FEAD4
:1009D0001C1CC0D111F4801F0BD141EA00014FF063
:1009E00000004FF0004CB6E711F4801F04BF014334
:1009F0000020B4F1FD0C88BFBCF5E06F3FF6AFAE50
:100A0000B5EB030C04BFB6EB020C5FEA500C50F1DF
:100A1000000041EB045170BD0EF0004E4EEA113162
:100A200014EB5C04C2BFD4EB0C0541EA045170BD69
:100A300041F480114FF0000E013C90E645EA060EAD
:100A40008DE60CEA135594EA0C0F08BF95EA0C0FDB
:100A50003FF43BAF94EA0C0F0AD150EA01347FF423
:100A600034AF95EA0C0F7FF425AF104619462CE7FA
:100A700095EA0C0F06D152EA03353FF4FDAE10465D
:100A8000194622E750EA410618BF52EA43067FF4AE
:100A9000C5AE50EA41047FF40DAF52EA43057FF43E
:100AA000EBAE12E7000000000000000000000000B4
:100AB0004FEA410212F5001215D211D56FF4787386
:100AC000B3EB625212D94FEAC12343F0004343EA29
:100AD000505311F0004F23FA02F018BF4042704704
:100AE0004FF00000704750EA013005D111F000408E
:100AF00008BF6FF0004070474FF00000704700BF24
:100B000053B94AB9002908BF00281CBF4FF0FF3174
:100B10004FF0FF3000F074B9ADF1080C6DE904CE70
:100B200000F006F8DDF804E0DDE9022304B07047C8
:100B30002DE9F047089E04468846002B4BD18A4297
:100B4000154667D9B2FA82F24AB1C2F1200701FA1A
:100B500002F320FA07F7954047EA030894404FEA6A
:100B6000154E230CB8FBFEF71FFA85FC0EFB178809
:100B700043EA084307FB0CF1994209D9EB1807F146
:100B8000FF3080F01B81994240F21881023F2B44D4
:100B90005B1AA4B2B3FBFEF00EFB103344EA03442D
:100BA00000FB0CFCA44509D92C1900F1FF3380F09F
:100BB0000781A44540F2048102382C4440EA0740F2
:100BC000A4EB0C0400271EB1D4400023C6E9004367
:100BD0003946BDE8F0878B4209D9002E00F0EB8042
:100BE0000027C6E9000138463946BDE8F087B3FA68
:100BF00083F7002F47D18B4202D3824200F2FA8062
:100C0000841A61EB030301209846002EE0D0C6E968
:100C10000048DDE702B9FFDEB2FA82F2002A40F0B6
:100C20008F80491B4FEA154E1FFA85F80127B1FB4B
:100C3000FEFC230C0EFB1C1143EA014308FB0CF1E4
:100C4000994207D9EB180CF1FF3002D2994200F219
:100C5000CD808446591AA3B2B1FBFEF00EFB1014EE
:100C600043EA044408FB00F8A04507D92C1900F119
:100C7000FF3302D2A04500F2B6801846A4EB080468
:100C800040EA0C409FE7C7F1200CBB4022FA0CFE63
:100C90004EEA030E01FA07F420FA0CF521FA0CF3E0
:100CA0004FEA1E482543B3FBF8F92C0C08FB193317
:100CB0001FFA8EFA44EA034309FB0AF49C4202FA43
:100CC00007F200FA07F10BD91EEB030309F1FF301D
:100CD00080F087809C4240F28480A9F1020973442D
:100CE0001B1BADB2B3FBF8F008FB103345EA03441D
:100CF00000FB0AFAA24508D91EEB040400F1FF33F9
:100D00006BD2A24569D90238744440EA0940A0FB7D
:100D10000289A4EB0A044C45C2464B4654D351D039
:100D2000002E69D0B1EB0A0564EB030404FA0CFC55
:100D3000FD40FC404CEA0505C6E90054002747E7A2
:100D4000C2F1200320FA03F7954001FA02F021FADC
:100D500003F34FEA154E3843010CB3FBFEF71FFABD
:100D600085F80EFB173341EA034107FB08F38B427A
:100D700004FA02F407D9691807F1FF3C2FD28B421D
:100D80002DD9023F2944CB1A81B2B3FBFEF00EFBF2
:100D9000103341EA034100FB08F38B4207D969187D
:100DA00000F1FF3C17D28B4215D902382944C91AE9
:100DB00040EA07473BE73746304609E70746E7E69C
:100DC0001846FBE64145ABD2B8EB020A69EB0E02CE
:100DD00001381346A4E76046E9E7184695E76746F9
:100DE000D1E781467CE702382C4447E7ACF1020C9E
:100DF0002B442FE7384608E73746E9E600000000B5
:100E0000704700BF0000000000000000000000006C
:100E1000844641EA000313F003036DD1403A41D305
:100E200051F8043B40F8043B51F8043B40F8043BC4
:100E300051F8043B40F8043B51F8043B40F8043BB4
:100E400051F8043B40F8043B51F8043B40F8043BA4
:100E500051F8043B40F8043B51F8043B40F8043B94
:100E600051F8043B40F8043B51F8043B40F8043B84
:100E700051F8043B40F8043B51F8043B40F8043B74
:100E800051F8043B40F8043B51F8043B40F8043B64
:100E900051F8043B40F8043B51F8043B40F8043B54
:100EA000403ABDD2303211D351F8043B40F8043BF4
:100EB00051F8043B40F8043B51F8043B40F8043B34
:100EC00051F8043B40F8043B103AEDD20C3205D304
:100ED00051F8043B40F8043B043AF9D2043208D0FC
:100EE000D2071CBF11F8013B00F8013B01D30B886E
:100EF00003806046704700BF082A13D38B078DD04C
:100F000010F003038AD0C3F10403D21ADB071CBF1D
:100F100011F8013B00F8013B80D331F8023B20F887
:100F2000023B7BE7043AD9D3013A11F8013B00F8C0
:100F3000013BF9D20B7803704B7843708B78837048
:100F40006046704700000000000000000000000044
:100F500090F800F06DE9024520F007016FF0000CF9
:100F600010F0070491F820F040F049804FF00004A1
:100F70006FF00700D1E9002391F840F000F108007C
:100F800082FA4CF2A4FA8CF283FA4CF3A2FA8CF3B4
:100F90004BBBD1E9022382FA4CF200F10800A4FA1B
:100FA0008CF283FA4CF3A2FA8CF3E3B9D1E904236F
:100FB00082FA4CF200F10800A4FA8CF283FA4CF3A6
:100FC000A2FA8CF37BB9D1E9062301F1200182FA60
:100FD0004CF200F10800A4FA8CF283FA4CF3A2FA66
:100FE0008CF3002BC6D0002A04BF04301A4612BA74
:100FF000B2FA82F2FDE8024500EBD2007047D1E977
:10100000002304F00305C4F100004FEAC50514F005
:10101000040F91F840F00CFA05F562EA05021CBFD6
:1010200063EA050362464FF00004A9E700000000F0
:1010300001F0FF01102A2BDB10F0070F08D010F889
:10104000013B013A8B422DD010F0070F42B3F6D18D
:10105000F0B441EA012141EA014122F007047FF0A6
:1010600000070023F0E80256083C85EA010586EAFD
:10107000010685FA47F5A3FA87F586FA47F6A5FA39
:1010800087F68EB9EED1F0BC01F0FF0102F0070245
:1010900032B110F8013B013A83EA010313B1F8D1F0
:1010A0000020704701387047002D06BF35460338D1
:1010B000073815F0010F07D1013015F4807F02BF0A
:1010C000013015F4C03F0130F0BC0138704700BF5B
:1010D0004FF0FF3C06E000BF4FF0010C02E000BF04
:1010E0004FF0010C4DF804CD4FEA410C7FEA6C5CE7
:1010F0004FEA430C18BF7FEA6C5C1BD001B050EA8A
:10110000410C0CBF52EA430C91EA030F02BF90EA74
:10111000020F0020704710F1000F91EA030F58BF33
:10112000994208BF90422CBFD8176FEAE37040F095
:10113000010070474FEA410C7FEA6C5C02D150EA33
:10114000013C07D14FEA430C7FEA6C5CD6D152EAEE
:10115000033CD3D05DF8040B704700BF84461046B3
:1011600062468C461946634600E000BF01B5FFF7B2
:10117000B7FF002848BF10F1000F01BD4DF808ED82
:10118000FFF7F4FF0CBF012000205DF808FB00BF53
:101190004DF808EDFFF7EAFF34BF012000205DF8AD
:1011A00008FB00BF4DF808EDFFF7E0FF94BF0120FA
:1011B00000205DF808FB00BF4DF808EDFFF7CEFFFB
:1011C00094BF012000205DF808FB00BF4DF808ED3A
:1011D000FFF7C4FF34BF012000205DF808FB00BF0B
:1011E0004FEA410C7FEA6C5C02D150EA013C0AD123
:1011F0004FEA430C7FEA6C5C02D152EA033C02D115
:101200004FF0000070474FF00100704700000000F1
:1012100000B5114B83B01B68019303F081FB01F013
:10122000D7FB00F06DFC0D4A0D490E4801F0F0FAB5
:101230000D490E4804F03CFD01F08AF901F0D8F99F
:1012400000F096FF00F064FB00F0DAF84FF47A70DB
:1012500002F0FEF9FAE700BF0008002004080020B1
:101260000C0800200012002020080020242A002062
:1012700000B5084B83B01A680192019A1B689A4224
:1012800005D1054803B05DF804EB01F009BCFFF798
:10129000EFFF00BF0008002070D50008000000002C
:1012A0002DE9F04F4A4A4B4B92694B491B684B4D15
:1012B000DFF838814A4C4B4F916185B0039302208F
:1012C00001F0DEF9DFF828B101904FF0000A08269E
:1012D0000DE0BAF1020F5FFA8AF072D005286AD0E9
:1012E0000023072804F80A301FD00AF1010A2B78DE
:1012F000504616FB03A901F09BF948F829005BF85A
:10130000043FDBF82020DBF840001344034487FB54
:101310000320A0EBE373452BDBDD5FFA8AF04FF08F
:101320000103072804F80A30DFD122780023E37094
:1013300023710AB1E3790BB9002323702A4B019A78
:101340001B68D31A1433282B0DD92B78019A01333B
:10135000DBB2022B88BF00232B70234B19201A60AD
:1013600002F076F9ABE76279A178207800F0B0F866
:101370000528EAD8DFE800F00A030A130D1C05204F
:1013800000F0C6F96FF0590000F07AF900F018F992
:10139000DBE7B42000F074F900F012F9D5E705207E
:1013A00000F0B6F95A2000F06BF900F009F9CCE72B
:1013B00000F046F9C9E7372B92DD4FF00103637166
:1013C00093E7282B8CDD4FF00103A3708DE700BF5E
:1013D000001C00200008002090D500080C120020FE
:1013E000741200205655555570120020101200201E
:1013F0000C120020000000000000000000000000AF
:1014000010B50A4C0A4B22680A4884B04FF41E718A
:10141000039200220092412202F0C2F8039A23684C
:101420009A4201D104B010BDFFF722FF000800204E
:10143000A11200088012002000000000000000003F
:1014400070B51C4D1C4C95F900201C4B1C4926689E
:101450001A7082B08B5C0196A0B90133DBB2042B09
:101460008B544FF0010614D0312A19DC01322A7056
:10147000019A2368134901249A4230460C7017D10F
:1014800002B070BD0233DBB2042B8B544FF0020666
:10149000EAD1002A08DD0020531E88542B70E7E7AC
:1014A000094801F0FDFAE3E7084801F0F9FADFE73F
:1014B000FFF7DEFEF91400200008002030150020A0
:1014C000FC140020F8140020A0D50008D4D5000892
:1014D00070B58B180344254C254D266882B0DBB2CD
:1014E0000120022B019628701AD0032B0ED0214B1D
:1014F000214D224A1B78107000262E70DBB100208F
:10150000019A23689A422ED102B070BD1A4A194935
:1015100013780020072B087017D801331370EFE7FA
:10152000144E154D002333702B700029E8D0002A8B
:10153000E5D10320E4E7019A23689A4213D10846D3
:1015400002B0BDE87040FFF77BBF0D49107091F904
:101550000030002BC4BF03F1FF330B70074B002298
:101560001A700420CCE7FFF783FE00BF00080020BC
:101570002E150020F81400202F1500202C08002024
:10158000F91400200000000000000000000000002E
:1015900000B5094B09491A68087883B000300192F8
:1015A000019A1B6818BF01209A4202D103B05DF86E
:1015B00004FBFFF75DFE00BF000800202E15002091
:1015C00030B50C4D0C4A0D4B296883B04FF4AF7405
:1015D000204614601C60019100F052FD019A2B68B6
:1015E0009A4205D1204603B0BDE8304000F030BD3E
:1015F000FFF73EFE000800203815002034150020BB
:1016000030B50B4C0B4A0C4B2568116083B0186049
:1016100001950D4600F034FD019A23689A4205D1E8
:10162000284603B0BDE8304000F012BDFFF720FEB1
:1016300000080020341500203815002000000000AC
:1016400030B50C4D0C4A0D4B296883B00024204660
:1016500014601C60019100F013FD019A2B689A42FE
:1016600005D1204603B0BDE8304000F0F1BCFFF7E3
:10167000FFFD00BF000800203815002034150020B1
:1016800007EE900AB8EEE77ADFED1D7ADFED1D6A0E
:1016900027EE277A30B5C7EE267A1B4D83B02B682C
:1016A000019300284FF00000FDEEE77A17EE904A14
:1016B00015DB00F045FD4FF4AF7000F0E1FC13487E
:1016C00000F0C6FC00F00CFDA042FBDB019A2B6889
:1016D0009A4213D103B0BDE83040FFF7B1BF00F02C
:1016E00017FD0A4800F0CCFC4FF4AF7000F0B0FCDE
:1016F000644200F0DDFCA042FBDBE7E7FFF7B8FD4A
:101700005224A6440000B44300080020A2FEFFFFBC
:101710004FF47A7303FB00F307EE903AB8EEE77AE2
:10172000F2EE0A6AC7EE267A30B5194D83B02B68FF
:10173000019300284FF00000FDEEE77A17EE904A83
:1017400016DB00F0FDFC4FF4AF7000F099FC4FF495
:10175000AF7000F07DFC00F0C3FCA042FBDB019AFF
:101760002B689A4212D103B0BDE83040FFF768BF42
:1017700000F0CEFC074800F083FC064800F068FC4F
:10178000644200F095FCA042FBDBE8E7FFF770FD48
:1017900000080020A2FEFFFF000000000000000083
:1017A00000B5074B07491A68086883B00192019A8F
:1017B0001B689A4202D103B05DF804FBFFF758FDA5
:1017C0000008002038150020000000000000000084
:1017D00000B5074B07491A68086883B00192019A5F
:1017E0001B689A4202D103B05DF804FBFFF740FD8D
:1017F0000008002034150020000000000000000058
:1018000070B52DED048B394A394B926939491B6803
:10181000394DDFED3A9A9FED3A9A916182B001938A
:1018200002E0142001F014FFFFF7B2FE0028F8D008
:10183000052000F0FDFE3728F3DD022000F0F8FE61
:101840002828EEDD012000F0F3FE0446062000F01B
:10185000EFFE241A24B26FF01D008442B8BF044684
:101860001E2CA8BF1E2407EE904A95ED008AF8EEC4
:10187000E78A38EEC88AB4EEE98AF1EE10FA32DC73
:10188000B4EE498AF1EE10FA48BFB0EE498AFFF78C
:1018900087FF0646FFF79CFF304400EBD07040F313
:1018A0004F00031B07EE903AF8EEE77AB6EE007AA7
:1018B000F0EE686AE8EE476AE8EE077A07EE100A8B
:1018C000B8EEC77AFDEEE77A36EE877A17EE903AF1
:1018D000BDEEC77A19B217EE103A18B2FFF790FEB4
:1018E000C5ED008A9DE79FED058AD0E7001C00202A
:1018F0000008002000D600083C1500200000C84267
:101900000000C8C20000000000000000000000004D
:1019100010B50A4C0A4B22680A4884B04FF41E7175
:10192000039200220092402201F03AFE039A2368BB
:101930009A4201D104B010BDFFF79AFC00080020C4
:101940000118000840150020000000000000000001
:1019500030B5104D81682B680F4A83B001930B6836
:1019600023F001030B608168946A03E0936A1B1BF8
:10197000C72B09D8086810F00100F7D1019A2B682D
:101980009A4204D103B030BD4FF0FF30F6E7FFF7C5
:101990006FFC00BF00080020001C002000000000B9
:1019A000F0B5284D83B02B68019302F0A9F801F03F
:1019B00097F9254B1E69F20715D55A69234C42F059
:1019C00001025A612778BB1F012B2AD905226368BF
:1019D00022701B680BB120469847042F27D0022F96
:1019E00025D003232370B30710D5174A174C53692A
:1019F00043F0020353612378032B1DD063689B6877
:101A00000622227013B101211048984701F090F985
:101A1000019A2B689A4213D103B0BDE8F04002F05E
:101A20003FBF019A2B689A420AD103B0F0BD02234E
:101A30002370B307EAD5D8E72046FFF789FFDDE733
:101A4000FFF716FC0008002000000550B817002022
:101A50002DE9F043254E83B034680194042A9DF8A3
:101A60002890144605460F46984639D9B9F1000F1B
:101A700014BF00224FF08052640002EB0863013C67
:101A80001C4405F00F0527F01F07202383F311885E
:101A900002F06EF83D4301F0A3F8154B1035DD6000
:101AA0001C6101F0BDF802F07BF8124B1A689A42F3
:101AB00004D0996993688A689A420DD3002383F30E
:101AC0001188BFF36F8FBFF34F8F019A33689A422B
:101AD0000AD103B0BDE8F083074800F0E1FFEDE76D
:101AE000064800F0DDFFC1E7FFF7C2FB0008002059
:101AF00090ED00E0001C002090D6000870D6000891
:101B000030B5224D224C2B68224A85B0039363687E
:101B100043F004036360536A43F480335362202329
:101B200083F3118802F024F801F05AF817221A4BB7
:101B3000E260236101F074F802F032F8174B1A6882
:101B40009A4204D0996993688A689A4218D300200F
:101B500080F31188BFF36F8FBFF34F8F03231D22D4
:101B600000904FF00051FFF773FF094A536843F0AC
:101B700001035360039A2B689A4205D105B030BD2A
:101B8000074800F08DFFE2E7FFF772FB0008002036
:101B900090ED00E000ED00E009000010001C0020C6
:101BA00090D60008000000000000000000000000C7
:101BB00070B51A4D1A4C1B4E0FCD0FC49EB02A683B
:101BC000336822801D93EFF30981682203A8FFF791
:101BD0001FF9154B9D6AAA0714D4EB0708D5124BC1
:101BE00008995B6B114A00910D48802108F008FBB1
:101BF0001D9A33689A420FD109481EB0BDE8704063
:101C000000F04EBF099A5B6B0092A4F11000084AE5
:101C1000802108F0F5FAE0E7FFF72AFB54D6000828
:101C2000CC1700200008002000ED00E030D60008AE
:101C300010D60008000000000000000000000000B6
:101C400000B51F4B0278196883B00191E2B11D4ABB
:101C50004FF4005111834278EAB11A4A4FF480518F
:101C600011838278F2B1174A4FF480411183C27810
:101C7000FAB9144A4FF400415183019A1B689A4201
:101C80001CD103B05DF804FB0E4A4FF400515183A0
:101C90004278002AE1D10B4A4FF480515183827877
:101CA000002AE0D1074A4FF480415183C278002ACC
:101CB000DFD0044A4FF400411183DEE7FFF7D8FA82
:101CC000000800200010024000000000000000009A
:101CD00000B51F4B0278196883B00191E2B11D4A2B
:101CE0004FF4007111834278EAB11A4A4FF48071BF
:101CF00011838278F2B1174A4FF400611183C278E0
:101D0000FAB9144A4FF480615183019A1B689A42D0
:101D10001CD103B05DF804FB0E4A4FF400715183EF
:101D20004278002AE1D10B4A4FF4807151838278C6
:101D3000002AE0D1074A4FF400615183C278002A9B
:101D4000DFD0044A4FF480611183DEE7FFF790FA99
:101D50000008002000100240000000000000000009
:101D600030B50C4A0C4B116883B04FF4005501910B
:101D70004FF480544FF400414FF480405D835C8306
:101D80005883598301991368994201D103B030BD3A
:101D9000FFF76EFA0008002000100240000000006B
:101DA00030B50C4A0C4B116883B04FF400750191AB
:101DB0004FF480744FF480614FF400605D835C8366
:101DC0005883598301991368994201D103B030BDFA
:101DD000FFF74EFA0008002000100240000000004B
:101DE00010B50B4C0B48236882B099220021019357
:101DF00003F08EF9019A23689A4206D10548002122
:101E000002B0BDE8104003F06BBAFFF731FA00BF33
:101E100000080020D0290020000000000000000081
:101E200010B50B4C0B48236882B099220021019316
:101E300003F06EF9019A23689A4206D10548002101
:101E400002B0BDE8104003F04BBAFFF711FA00BF33
:101E500000080020EC290020000000000000000025
:101E600000B5084B83B01A680192019A1B689A4228
:101E700006D10548002103B05DF804EB03F098B9E2
:101E8000FFF7F6F900080020D0290020000000002C
:101E900000B5084B83B01A680192019A1B689A42F8
:101EA00006D10548002103B05DF804EB03F080B9CA
:101EB000FFF7DEF900080020EC29002000000000F8
:101EC00070B51A4C1A4E2378326882B0022B0192F8
:101ED000A26811D165781748013505F0070500EBB8
:101EE0008500904763686570013B6360019A3368C1
:101EF0009A4219D102B070BD012B08D00199336804
:101F0000994211D10C4802B0BDE870401047657885
:101F10000848013D05F0070500EB85009047636820
:101F2000657001336360E1E7FFF7A2F964180020F0
:101F30000008002030D7000820D70008000000006B
:101F400070B51A4C1A4E2378326882B0012B019278
:101F5000A26811D165781748013505F0070500EB37
:101F6000850090476368657001336360019A336848
:101F70009A4219D102B070BD022B08D00199336882
:101F8000994211D10C4802B0BDE870401047657805
:101F90000848013D05F0070500EB850090476368A0
:101FA0006570013B6360E1E7FFF762F94C180020C0
:101FB0000008002030D7000820D7000800000000EB
:101FC00030B51F4D85B02B68039340F24C439942C6
:101FD000044626DCA3F69803994211DB4B00002B44
:101FE00029D10370036998474FF47A71039A2B68DB
:101FF0009A421ED1606905B0BDE8304003F040B898
:10200000104B02225B42227040F2892293420E4919
:1020100091FBF3F189B207DC0191E36898470199DC
:10202000E4E7012303702D21019123699847019969
:10203000DCE7FFF71DF9E4DD01220270E4E700BFF1
:102040000008002068F7FFFFA086010000000000E4
:1020500000B5084B83B01A680192019A1B689A4236
:1020600006D10146044803B05DF804EBFFF7A8BFB2
:10207000FFF7FEF8000800204C18002000000000C8
:1020800000B5084B83B01A680192019A1B689A4206
:1020900006D10146044803B05DF804EBFFF790BF9A
:1020A000FFF7E6F800080020641800200000000098
:1020B00000B5094B094A1968506883B000EBD0702D
:1020C0000191019A1B689A4203D1401003B05DF858
:1020D00004FBFFF7CDF800BF000800204C180020DB
:1020E00000B5094B094A1968506883B000EBD070FD
:1020F0000191019A1B689A4203D1401003B05DF828
:1021000004FBFFF7B5F800BF0008002064180020AA
:1021100000B5084B08491A6883B040000192019A43
:102120001B6848609A4202D103B05DF804FBFFF7D8
:102130009FF800BF000800204C180020000000009D
:1021400000B5084B08491A6883B040000192019A13
:102150001B6848609A4202D103B05DF804FBFFF7A8
:1021600087F800BF0008002064180020000000006D
:1021700070B51D4E1D4A1E4B30681E491E4C9160A5
:1021800082B00021D46001901C4C1D481D4D9D6003
:10219000117051705160106154611B481B4A1C4DF5
:1021A000D8601C48197059705960C3E90425FFF7BD
:1021B00047FD1848FFF78CFD1749204602F010FF35
:1021C000204603F045F82846144902F009FF019A19
:1021D00033689A4205D1284602B0BDE8704003F04A
:1021E00037B8FFF745F800BF00080020641800204A
:1021F0004C180020411C0008E11D0008D0290020D7
:10220000611E0008D11C0008211E0008911E000854
:10221000EC29002020D70008E0D60008A0D600084E
:102220000A490B4B09680B4A82B0202001914021DA
:1022300058834FF4806559834FF400644FF4804015
:1022400004215D835C8358835183FEE700080020EE
:10225000000C0240000402400000000000000000EA
:1022600010B51E491E4A0B78106882B0013B0190E0
:10227000072B0AD8DFE803F012151C1F26290F04CC
:1022800018480824012304830B70019913689942AC
:1022900021D102B010BD08230B70F6E702230B70AA
:1022A000F3E711484FF48054032304830B70ECE7E9
:1022B00004230B70E9E70C484FF4804405230483A2
:1022C0000B70E2E706230B70DFE7064804240723C0
:1022D00004830B70D9E7FEF7CBFF00BFF81B00208B
:1022E000000800200010024000040240000000002E
:1022F00030B50C4B0C4918680C4A83B04FF480453C
:1023000001904FF480504883042408204D83548367
:102310005083019A1B689A4201D103B030BDFEF789
:10232000A7FF00BF00080020000402400010024088
:102330002DE9F04F4E4B4F4A9B694F499961A5B02B
:1023400007AE05AD80231768009331462A46002466
:102350000CA84A4B2397CDE90766CDE90555CDE991
:1023600009440B9400F06CFA0CA9454A4548434CCB
:10237000454DDFF83481DFF834B1DFF834A100F0E7
:1023800087FA04F11C0604F16007A146504601F0EB
:102390008FFC2A682B69226063602A6A2B6BA2601B
:1023A000E3606A686B69226163616A6A6B6BA26150
:1023B000E361AA68AB6922626362AA6AAB6BA2623C
:1023C000E362EA68EB6922636363EA6AEB6B2F49B5
:1023D000A263E36351F8043F0A6AB142A3EB02032C
:1023E0000B64F7D1802249460CA800F081FA98F8D6
:1023F0000030002BCAD09BF8003033B3012BC5D17D
:10240000DFF8B0C02248614650F8042B51F8043F71
:10241000B84213440B60F7D11E4A13780133DBB284
:10242000642B1370B2D11C495CF8043F1B4A82FB39
:102430000302DB17C3EB621341F8043B184B9C45C6
:10244000F2D1002388F80030A0E719462022124874
:10245000039307F085FE039B12481946202207F0DC
:102460007FFE0C49039B0B7001228BF800208DE747
:10247000001C00200008002050D700080019002090
:1024800090D70008001200209C180020FC180020A3
:1024900040190020DD180020601900201F85EB5135
:1024A000FC180020E0180020DC180020DE180020B6
:1024B00030080020DC1800200000000000000000B0
:1024C00070B502691E4D52882B6882B006460C46D4
:1024D0001C4801939200002107F042FE33695B889B
:1024E0005BB1184AA11E002331F8020F42F8040B19
:1024F0003069408801339842F6D8202383F311884D
:1025000001F066FB00F0ACFB00F03AFC0E4883687B
:10251000002B0FDD00F0C4FB01F072FB002383F3FE
:102520001188019A2B68094901209A42087004D148
:1025300002B070BD01F0F4FBECE7FEF799FE00BFBE
:10254000000800209C18002030080020F81B002004
:1025500070B51F4D1F4C2E78236884B0012E039355
:1025600005D0039A23689A422FD104B070BD002190
:10257000284602F0EDFA284602F0AAFB3346284628
:10258000154A164902F064FB1549164802F028FD69
:102590004FF496720021134802F0BAFD0021114851
:1025A00002F09EFE0F4802F053FE31464FF4827255
:1025B0000C4802F0ADFD0023009340220A4B0B486B
:1025C0004FF41E7100F0ECFFCBE7FEF751FE00BFA9
:1025D0005C230020000800207C18002060D7000841
:1025E000A0D70008B429002031230008801900205A
:1025F00030B50C4D0C4A2B680C4C83B00021019374
:10260000012311702370142001F022F82378002B8D
:10261000F9D1019A2B689A4201D103B030BDFEF77F
:1026200027FE00BF00080020DE180020DC18002074
:1026300010B50E4A82B013680193072811D80C49CF
:1026400000F1180300F1100451F8233051F8240070
:10265000C01A20EAE07001991368994203D102B0D0
:1026600010BD0020F7E7FEF703FE00BF00080020C2
:102670000019002000000000000000000000000021
:1026800000B50A4B83B01A68019207289CBF084A1C
:1026900052F82000019A1B6888BF00209A4202D19C
:1026A00003B05DF804FBFEF7E3FD00BF0008002067
:1026B00000190020000000000000000000000000E1
:1026C00000B5084B83B01A680192019A1B689A42C0
:1026D00005D1054803B05DF804EB01F049BCFEF7F5
:1026E000C7FD00BF000800203C08002000000000DB
:1026F00000B5084B83B01A680192019A1B689A4290
:1027000005D1054803B05DF804EB01F069BCFEF7A4
:10271000AFFD00BF000800203C08002000000000C2
:1027200070B50D4C82B0236801930D1E06460DDD79
:10273000284602F02DF818B90C2333604FF0FF3013
:10274000019A23689A4205D102B070BD034800F097
:10275000A7F9EDE7FEF78CFD00080020E0D70008A0
:1027600000B5064B83B01A680192019A1B689A4221
:1027700002D103B05DF804FBFEF77AFD00080020EB
:1027800000B5074B83B01A680192019A1B689A4200
:1027900004D103B05DF804EB01F0EABBFEF768FD7D
:1027A0000008002000000000000000000000000001
:1027B00000B5074B83B01A680192019A1B689A42D0
:1027C00004D103B05DF804EB01F00ABCFEF750FD44
:1027D00000080020000000000000000000000000D1
:1027E00000B5074B83B01A680192019A1B689A42A0
:1027F00004D103B05DF804EB01F0A2BCFEF738FD94
:1028000000080020000000000000000000000000A0
:1028100010B5084B82B01C68019400240460019C30
:102820001B689C42C0E9011201D102B010BDFEF745
:102830001FFD00BF00080020000000000000000095
:102840002DE9F0430E4D83B02C680194044699465F
:102850000F46164610304C220021DDF8288007F084
:102860007FFCC4F80090019A2B68E6609A42C4E9A4
:10287000018702D103B0BDE8F083FEF7F9FC00BF89
:102880000008002000000000000000000000000020
:10289000F0B5144E83B001F110031746326801926F
:1028A0000446412218460D46002107F059FC3946DE
:1028B000402207F0EDFC6068FFF762FF236803B178
:1028C000AB652560A068FFF78BFF019A33689A42D9
:1028D00005D1606803B0BDE8F040FFF769BFFEF7BF
:1028E000C7FC00BF0008002000000000000000003E
:1028F000F0B51C4E436883B00546934230680190A2
:1029000006D20020019A33689A4229D103B0F0BD63
:1029100014460F46A868FFF733FF22463946286859
:10292000FEF776FA012385F85130E868FFF758FF83
:102930006C6D84B123681868FFF722FF23689D60DF
:1029400023685868FFF74CFF23681868FFF730FFCB
:102950006468002CEED1A868FFF72AFF0120D1E7B8
:10296000FEF786FC000800200000000000000000C8
:1029700000B5064B83B01A680192019A1B689A420F
:1029800002D103B05DF804FBFEF772FC00080020E2
:10299000024B82B01B680193FEE700BF00080020D5
:1029A00000B5044B04481B6883B0019300F078F82D
:1029B000FEE700BF00080020F0D70008000000007C
:1029C000024B82B01B680193FEE700BF00080020A5
:1029D000F0B5294E294B3268294885B0002403926E
:1029E0009C60D968274A4FF6FF0529400A43DA6000
:1029F000C2682549254D42F08072C2600A6842F0E3
:102A000001020A6010202022D87783F8222000F0EB
:102A1000DFFA00F045FA00F0FBFF01F091FE01F053
:102A2000FFFE01F04DF800F0FBF9402105F588604C
:102A300000F01EFD0127164BC36180F82070A861CD
:102A400000F0A6F884F3118862B6AB69114A9A6166
:102A50004FF4C4713A46104B009405F59D6000F0A8
:102A60009FFD039A33680D4981619A4201D105B0F7
:102A7000F0BDFEF7FDFB00BF0008002000ED00E008
:102A8000F0ED00E00003FA05001000E0001C00205B
:102A90000004002070D90008C129000810D80008DF
:102AA00000B5054B83B01B680193044672B6FFF76F
:102AB000B7FB024BDC62FEE700080020001C002090
:102AC0002DE9F047DFF890A0224DDAF8003082B00F
:102AD000019300F055F9AB6993F8232012B1013A44
:102AE00083F823205A6ADFF8748001325A6200F0BA
:102AF00047F9AB6AEA6901334245AB6220D093687B
:102B0000013B9360EC69A668D6B94FF020092368B1
:102B1000E768E660C3F804802368EB6100F0C0F862
:102B200001F06EF886F311882069B84789F311889F
:102B300001F04EF800F094F8EC69A368002BE6D0A1
:102B4000019ADAF800309A4202D102B0BDE8F0876B
:102B5000FEF78EFB001C0020000800201C1C00203B
:102B600010B5094C094A236882B001935168536833
:102B70005B1A9842FBD8019A23689A4201D102B0AD
:102B800010BDFEF775FB00BF00080020001000E03C
:102B900000B50E4A0E4B116B186883B0019009B94D
:102BA000526B4AB1019A1B689A420CD1094803B092
:102BB0005DF804EBFFF774BF019A1B689A4202D1DB
:102BC00003B05DF804FBFEF753FB00BF001C0020C0
:102BD0000008002020D800080000000000000000CD
:102BE00030B50B4C0B4D236B2A6883B001920BB9A7
:102BF000636B13B10848FFF753FF019A2B6801215B
:102C00009A42616301D103B030BDFEF731FB00BFD2
:102C1000001C00200008002050D800080000000020
:102C200030B50C4C0C4D236B2A6883B0019253B91C
:102C3000636B002B07DD019A2B6800219A426163C8
:102C400005D103B030BD0548FFF72AFFF3E7FEF7D3
:102C50000FFB00BF001C00200008002070D80008F7
:102C600030B50B4C0B4D236B2A6883B0002B0192BF
:102C700001DD636B13B10848FFF712FF019A2B685F
:102C800001219A42616301D103B030BDFEF7F0FA31
:102C9000001C00200008002060D800080000000090
:102CA00030B50C4C0C4D236B2A6883B0002B01927D
:102CB0000ADD636B002B07DD019A2B6800219A4225
:102CC000616305D103B030BD0448FFF7E9FEF3E7C7
:102CD000FEF7CEFA001C00200008002080D8000873
:102CE00030B50F4D83B02B680193202383F31188F7
:102CF0000C4C236B002B01DB626B1AB10A48FFF707
:102D0000CFFE236B01332363002383F31188019AE1
:102D10002B689A4201D103B030BDFEF7A9FA00BF7B
:102D200000080020001C002030D80008000000002F
:102D300030B50F4D83B02B680193202383F31188A6
:102D40000C4C236B002B01DD626B1AB10A48FFF7B4
:102D5000A7FE236B013B2363002383F31188019AB1
:102D60002B689A4201D103B030BDFEF781FA00BF53
:102D700000080020001C002040D8000800000000CF
:102D800000B50F4A0F4B116B186883B000290190F2
:102D900009DB526B002A06DD019A1B689A420CD1AE
:102DA00003B05DF804FB019A1B689A4205D10648FE
:102DB00003B05DF804EBFFF773BEFEF759FA00BFEE
:102DC000001C00200008002090D80008000000002F
:102DD00000B50E4A0E4B116B186883B0019049B9CB
:102DE000526B002A06DD019A1B689A420CD103B08F
:102DF0005DF804FB019A1B689A4205D1054803B0AF
:102E00005DF804EBFFF74CBEFEF732FA001C002021
:102E100000080020A0D8000800000000000000000A
:102E200010B5084A084B116882B0402401910199FD
:102E3000126818199142C3E90E4001D102B010BDC9
:102E4000FEF716FA00080020001C00200000000019
:102E500010B51149114B0A6882B00192DA6B9C6A75
:102E60001460DA6B9C695460DA6B846A9460DA6B84
:102E700090F820001073DA6B03F5886010328242FC
:102E800028BF03F14002DA63019A0B689A4201D12C
:102E900002B010BDFEF7ECF900080020001C002075
:102EA00010B50B4A0B4B116882B04FF0FF34019103
:102EB00000219962019811685C6203F11C0288424A
:102EC000C3E9072201D102B010BDFEF7D1F900BF5E
:102ED00000080020001C002000000000000000008E
:102EE0002DE9F041184E82B00546306801900C463D
:102EF00017469846FFF744FF05B3FFB1F4B1C5E9A3
:102F000003781248C3699A68944204D91B68A41ACA
:102F10009A68A242FAD32B605A686A6015605D60B5
:102F2000AC609968019D3268091B95424FF0FF34EF
:102F30009960446206D102B0BDE8F0810448FFF711
:102F4000AFFDDCE7FEF794F900080020001C00202C
:102F5000B0D80008000000000000000000000000E1
:102F600030B5164D83B004462B680193FFF708FF78
:102F7000ECB1E368BBB12268A0689368019903448F
:102F80009360D4E900231A6020682B680C4A6568B6
:102F9000456099424FF000054FF0FF30E560506208
:102FA00009D103B030BD0748FFF77AFDE3E70548D4
:102FB000FFF776FDDDE7FEF75BF900BF00080020B4
:102FC000001C0020C0D80008000000000000000025
:102FD00000B50A4A0A4B11681B6083B000200191BA
:102FE000019912685B609142C3E90433986002D191
:102FF00003B05DF804FBFEF73BF900BF00080020BA
:10300000001C002000000000000000000000000084
:1030100030B5164D83B004462B680193FFF7B0FE20
:10302000ECB194F82030B3B10F2B14D00022A1687A
:103030000F4B84F820201B689A688A42FBD22360D9
:103040005A686260146001992A685C609142204667
:1030500009D103B030BD0748FFF722FDE6E7054878
:10306000FFF71EFDDDE7FEF703F900BF00080020B3
:10307000001C0020D0D80008000000000000000064
:1030800070B5204D82B02B6801930446202383F352
:10309000118800F09DFDFFF7E3FD94F82030072B29
:1030A00011D8DFE803F0161010230A04100AA66AEC
:1030B000FFF766FEB3680133B360D4E900231A60FA
:1030C000D4E900325A604FF0FF33A3622046FFF785
:1030D0009FFFFFF7E5FD00F093FD002383F31188C8
:1030E000019A2B689A420BD102B070BDA36A0022EC
:1030F0001A604FF0FF33A3622046FFF789FFE8E72D
:10310000FEF7B6F8000800200000000000000000F4
:10311000F0B5194E194C336883B007460193FFF799
:1031200057FEA569236885F82070142285F82320AE
:103130001A68226001215460284683F82010A36198
:10314000FFF786FE2946A06900F0F2FCEFF3098341
:10315000EA69643B9A4202D90948FFF7A1FC019A47
:1031600033689A4206D1A069294603B0BDE8F04011
:10317000FDF79EB8FEF77CF800080020001C002038
:10318000E0D800080000000000000000000000007F
:10319000F0B5154C87B0236805930E460746FFF738
:1031A00017FE731C18D0114D114AAB6931466846A1
:1031B000FFF796FE3846FFF7ABFFFFF7E1FD039BF5
:1031C00013B16846FFF7CCFE059A2368A9699A42B5
:1031D000886A06D107B0F0BD3846FFF799FF034D66
:1031E000F2E7FEF745F800BF00080020001C0020B1
:1031F0008130000800000000000000000000000016
:10320000F0B51E4D1E4E2B6883B0044601930F4649
:10321000FFF7DEFDB069A7628368A2689A421DD9F4
:10322000FFF7F6FE0123074684F82030B461FFF76C
:103230000FFE3946204600F07BFCEFF30983FA6964
:10324000643B9A4214D8019A2B689A4214D13946A9
:10325000204603B0BDE8F040FDF72AB8019A2B687C
:103260009A4209D1204603B0BDE8F040FFF7D0BE36
:103270000448FFF715FCE6E7FDF7FAFF0008002019
:10328000001C0020E0D80008000000000000000042
:1032900010B50E490E4B8A69086892F823101C6815
:1032A0008068926882B0019449B9904234BF00208E
:1032B0000120019A1B689A4206D102B010BD9042CB
:1032C00094BF00200120F4E7FDF7D2FF001C00208E
:1032D00000080020000000000000000000000000C6
:1032E00070B5184C184E2368A5691A68226054609E
:1032F000012283F8202082B01422316885F823202F
:103300002846A3610191FFF783FE2846FFF7A0FD41
:103310002946A06900F00CFCEFF30983EA69643BDD
:103320009A4202D90948FFF7BBFB019A33689A42D7
:1033300006D1A069294602B0BDE87040FCF7B8BFCD
:10334000FDF796FF001C002000080020E0D80008D0
:1033500070B51C4D1C4E2A68AC6913682B600121A6
:1033600082B05D60002082F82010AA613268A168F6
:1033700084F82000019200E01B689A688A42FBD81A
:1033800023605A686260204614605C60FFF760FD4D
:103390002146A86900F0CCFBEFF30983E269643BA6
:1033A0009A4202D90948FFF77BFB019A33689A4297
:1033B00006D1A869214602B0BDE87040FCF778BF8D
:1033C000FDF756FF001C002000080020E0D8000890
:1033D00010B50F4C82B023680193FFF7F9FCFFF79B
:1033E000CFFC0C4B1A689B6992689B689A42019AC1
:1033F000236803D89A4208D102B010BD9A4204D182
:1034000002B0BDE81040FFF7A3BFFDF731FF00BFDA
:1034100000080020001C0020000000000000000048
:1034200000B50E4A0E4B9269196892F8232083B0BA
:10343000019142B1019A1B689A420DD103B05DF827
:1034400004EBFFF785BF019A1B689A4204D103B0D1
:103450005DF804EBFFF744BFFDF70AFF001C0020F6
:103460000008002000000000000000000000000034
:10347000F0B51A4A1A4D02610446816083B01423E4
:1034800050692E68616484F82330022700230121EB
:10349000278484F82210C4E90F3304F16801A36182
:1034A000019604F12C07636204F1500604F1300325
:1034B00060610461C4E90C33E1613046E762546144
:1034C00000F03EFA304600F05BFA019A2B689A420F
:1034D00002D1204603B0F0BDFDF7CAFE001C00205B
:1034E00000080020000000000000000000000000B4
:1034F00010B5094B82B01C680194884203D200F8D1
:10350000012B8142FBD1019A1B689A4201D102B082
:1035100010BDFDF7ADFE00BF000800200000000058
:103520002DE9F043184E83B0346801940546DDF868
:1035300028900C4617469846FFF722FC15B1B4F5C3
:10354000BC7F19D21148FFF7ABFAA4F164012944FA
:10355000E960C1F84080EB68019AC3F84490336891
:10356000E9680B4808669A420CD13946284603B0F0
:10357000BDE8F043FFF77CBF7F2FE3D8B8F1000F21
:10358000E3D1DFE7FDF774FE0008002030D9000822
:10359000C902000800000000000000000000000058
:1035A0002DE9F04FDFF8A48087B0D8F80040DDF8AF
:1035B0004090059407468A46934600F16806044603
:1035C000FF2504F8015BA642FBD107EB0A05A542E3
:1035D00004D9552604F8016BA542FBD103932022A0
:1035E00082F3118800F0C4FAFFF7FAFA039BCDF8D2
:1035F00000905A4651463846FFF792FF0021044694
:10360000FFF7FEFDFFF70CFB00F0CAFA0D4B1A683E
:103610009A4204D0996993688A689A420BD300232E
:1036200083F31188059AD8F800309A42204606D1D3
:1036300007B0BDE8F08F0448FFF732FAEFE7FDF777
:1036400017FE00BF001C0020F0D800080008002072
:1036500030B5184C83B0236801930546202383F3CB
:10366000118800F085FAFFF7BBFA15B91248FFF789
:1036700017FA29460820FFF78BFDFFF7D1FA00F073
:103680008FFA0E4B1A689A4204D0996993688A6837
:103690009A4208D3002383F31188019A23689A423F
:1036A00005D103B030BD0648FFF7FAF9F2E7FDF7A0
:1036B000DFFD00BF0008002000D90008001C00202A
:1036C000F0D800080000000000000000000000002A
:1036D00070B5164B164E9C693268E36AA06282B0E0
:1036E00004F12C05AB42019207D01A68E262184639
:1036F000FFF78EFCE36AAB42F7D194F821309B07C9
:1037000005D1D4E904231A61D4E904325A610F20A7
:10371000FFF7FEFC019A33689A4205D1054802B0D2
:10372000BDE87040FFF7BCB9FDF7A2FD001C00200A
:103730000008002040D90008000000000000000040
:1037400030B50C4C83B0236801930546202383F3E6
:10375000118800F00DFAFFF743FA019A23689A42A4
:1037600005D1284603B0BDE83040FFF7B1BFFDF7F3
:103770007FFD00BF000800200000000000000000E6
:10378000F0B50D4D0D4E03682A68B76983B0044645
:10379000019213B10A48FFF783F927600320BC6246
:1037A000FFF7B6FC019A2B68B1699A42886A01D189
:1037B00003B0F0BDFDF75CFD00080020001C0020F8
:1037C00050D90008000000000000000000000000C8
:1037D000F0B5124D04682B6883B00193B4B194F82E
:1037E0002030032B06460F460CD100233360019A8C
:1037F0002B68A7629A420FD1204603B0BDE8F04083
:10380000FFF706BC0648FFF74BF9EEE7019A2B6875
:103810009A4201D103B0F0BDFDF72AFD0008002057
:1038200060D9000800000000000000000000000057
:1038300030B5104A83B01368019381B10E4B019DDE
:103840009B69186044685C6023601268436095421D
:103850000DD1042003B0BDE83040FFF799BC0199B9
:10386000136899424FF0FF3001D103B030BDFDF72E
:10387000FFFC00BF00080020001C0020000000002A
:1038800070B5124D04682B6882B0A042019315D028
:1038900023680360586094F82030042B0E4602D051
:1038A0000B48FFF7FDF8019A2B68A6629A420BD1EC
:1038B000204602B0BDE87040FFF7AABB019A2B6812
:1038C0009A4201D102B070BDFDF7D2FC0008002081
:1038D00010D90008000000000000000000000000F7
:1038E0002DE9F041DFF850800468D8F8003082B04C
:1038F000A042019313D00F4F05460E4623682B605C
:103900005D6094F82030042B02D03846FFF7C8F8E9
:10391000A6622046FFF77CFB2C68A542EED1019AF7
:10392000D8F800309A4202D102B0BDE8F081FDF72C
:103930009FFC00BF10D90008000800200000000014
:1039400030B50B4B83B01A6801924FF0FF32026022
:1039500001991A680024002300259142C0E904451A
:10396000C0E90133C36001D103B030BDFDF780FC75
:10397000000800200000000000000000000000001F
:1039800000B5084B084A196883B001915168019A43
:103990001B6881609A4202D103B05DF804FBFDF719
:1039A00067FC00BF00080020001000E000000000DD
:1039B000F0B51449144B0A68846883B00192134A25
:1039C0005B68D2F8A864C2681B1BD0E904450132C9
:1039D0009B1BC26042688360E61845F10007934272
:1039E000C0E9046709D80268934238BF0360019AAE
:1039F0000B689A4203D103B0F0BD4360F7E7FDF7CF
:103A000037FC00BF00080020001000E0001C002070
:103A100030B5114D114C2B6889B04FF0FF31079331
:103A2000002300226846C4F8A834CDE9013303938B
:103A30000023CDE904230091FFF7A2FF6846FFF7BA
:103A4000B7FF079A2B680299C4F8A8149A4201D1CB
:103A500009B030BDFDF70CFC00080020001C002060
:103A60002DE97048134E144B326883B001925B68A5
:103A70008B60D0E902411B1BD0E90445426814EB7E
:103A8000030B45F1000C01319342C0E90231C0E95A
:103A900004BC0AD80268934238BF0360019A3368B5
:103AA0009A4204D103B0BDE870884360F6E7FDF7A1
:103AB000DFFB00BF00080020001000E00000000055
:103AC00030B50D4D0D4C2B6883B004F59760019314
:103AD0000023C4F8B034C4F8B434FFF731FF019ABE
:103AE0002B689A4206D104F59A6003B0BDE83040D5
:103AF000FFF726BFFDF7BCFB00080020001C0020DC
:103B000000B50949094A0B6883B001930198D2F8BE
:103B1000B034096801338842C2F8B03402D103B02E
:103B20005DF804FBFDF7A4FB00080020001C00204A
:103B300070B50D4C0D4A236882B00193019DD2F8F7
:103B4000B43424680133A542C2F8B43409D10E4616
:103B500000F1500106F1500002B0BDE87040FFF7DF
:103B60007FBFFDF785FB00BF00080020001C002080
:103B700000B5084B83B01A680192019A1B689A42FB
:103B800005D1054803B05DF804EBFFF7F9BEFDF77A
:103B90006FFB00BF00080020B820002000000000DC
:103BA00000B5084B83B01A680192019A1B689A42CB
:103BB00005D1054803B05DF804EBFFF7F9BEFDF74A
:103BC00057FB00BF00080020B820002000000000C4
:103BD00000B5084B83B01A680192019A1B689A429B
:103BE00005D1054803B05DF804EBFFF7C9BEFDF74A
:103BF0003FFB00BF00080020D02000200000000094
:103C000000B5084B83B01A680192019A1B689A426A
:103C100005D1054803B05DF804EBFFF7C9BEFDF719
:103C200027FB00BF00080020D0200020000000007B
:103C300070B51B4D82B004462B680193FFF7C8F89E
:103C400044B3A3682268002B10DBA24203D01548BE
:103C5000FEF726FFA368013B002BA3600CDB0020CE
:103C6000019A2B689A4219D102B070BDA242EED0DF
:103C7000013B002BA360F2DA0B4EB3699C621C601F
:103C800062685A60052013606360FFF741FAB36908
:103C9000986AE5E70348FEF703FFD2E7FDF7E8FA85
:103CA00000080020A0D90008001C0020000000002F
:103CB00030B5164C83B0236801930546202383F367
:103CC0001188FFF755FFFEF78BFF2846FFF7B0FF7F
:103CD0000546FEF7A5FFFFF763FF0D4B1A689A42F2
:103CE00004D0996993688A689A4209D3002383F3C0
:103CF0001188019A23689A42284605D103B030BD45
:103D00000448FEF7CDFEF1E7FDF7B2FA0008002007
:103D1000001C002090D900080000000000000000F6
:103D200030B51C4D83B004462B680193FFF728F88B
:103D30004CB3A3682268002B0FDBA24203D01648C5
:103D4000FEF7AEFEA3680133002BA3600BDD019AE2
:103D50002B689A421BD103B030BDA242EFD0013391
:103D6000002BA360F3DC20680199036823602A68B4
:103D70005C6091424FF00003836208D103B0BDE85C
:103D80003040FFF745B90448FEF78AFED1E7FDF75A
:103D90006FFA00BF00080020B0D900080000000042
:103DA00030B50B4D83B02B680193044650B12460AD
:103DB00001992A68646000239142A360236105D1C0
:103DC00003B030BD0348FEF76BFEF0E7FDF750FA95
:103DD00000080020D0D9000800000000000000000A
:103DE000F0B55D4E5D4B32689D6983B0044601922B
:103DF000FEF7EEFF002C00F08480A0682369002805
:103E000043D0002B40F39780854276D0AA68836820
:103E10009A4208D990F820308260062B40D0072BB8
:103E200073D0002B5DD02746234603E09968AA682B
:103E3000914233D31B689C42F8D12F607B686B6042
:103E400006201D607D60AC62FFF762F9A368AB429B
:103E500002D04348FEF724FE2B6CA34202D0404818
:103E6000FEF71EFE2369012B05D1019A33689A42A1
:103E70006FD103B0F0BD019A33689A4269D13848D6
:103E800003B0BDE8F040FEF70BBE002B58D1013364
:103E9000A56023612B6CE3602C64E6E71F46CCE74A
:103EA000D0E900231A60D0E900325A60876A3B46A5
:103EB00003E099688268914247D31B689F42F8D11A
:103EC00007607B68436018607860836AAA689868B6
:103ED00083689342A7D290F820308260062B9ED14F
:103EE000DEE7D0E90023012180F820101A60D0E934
:103EF00000325A60FFF78CF895E72369013323619C
:103F0000B3E71748FEF7CCFD77E7D0E900231A6046
:103F1000D0E900325A60876A3B4603E099688268BC
:103F2000914214D31B689F42F8D107607B684360BD
:103F30001860786077E70A48FEF7B2FDA06863E78B
:103F40000748FEF7ADFD2369A1E71F46B8E71F4606
:103F5000EBE7FDF78DF900BF00080020001C0020F2
:103F6000E0D9000800000000000000000000000090
:103F700030B5154C83B0236801930546202383F3A5
:103F80001188FFF7F5FDFEF72BFE2846FFF728FF07
:103F9000FEF746FEFFF704FE0C4B1A689A4204D067
:103FA000996993688A689A4208D3002383F3118839
:103FB000019A23689A4205D103B030BD0448FEF748
:103FC0006FFDF2E7FDF754F900080020001C002007
:103FD000C0D9000800000000000000000000000040
:103FE0002DE9F043DFF800813C4FD8F80030BE697E
:103FF00083B005460193002864D0202383F3118801
:10400000FFF7B6FDFEF7ECFD336C002B5ED09B682E
:10401000B34202D03248FEF743FD2B69002B49DD45
:10402000013B2B615BBB336CAB4202D02C48FEF7EB
:1040300037FDEB683364FEF7CBFE2B689D423ED024
:10404000D6E910495CB1FEF7C3FE23689C4203D059
:104050009B68994538BF9946E468002CF3D1C6F8AF
:1040600008902B6801222A611A682A605560AB60AB
:104070001A6CEA6018461D640021FFF7C1F8FEF7CC
:10408000CFFDFFF78DFD3B68BB4204D0BA699B684A
:1040900092689A420AD3002383F31188019AD8F8D0
:1040A00000309A4217D103B0BDE8F0830D48FEF707
:1040B000F7FCF0E70A48FEF7F3FC2B69B0E70023B2
:1040C000AB60DCE70648FEF7EBFC96E70448FEF73A
:1040D000E7FC336C9BE7FDF7CBF800BF001C00202A
:1040E000F0D90008C0D90008000800200000000036
:1040F00070B5114E82B0044633680193FEF740FE5E
:104100009CB12068A0420AD06FF0010503682360CB
:104110005C60FEF77DFF85622068A042F6D1019ABF
:1041200033689A4205D102B070BD0448FEF7B8FC6E
:10413000E7E7FDF79DF800BF0008002010DA00084F
:1041400030B5164C83B0236801930546202383F3D2
:104150001188FFF70DFDFEF743FD2846FFF7C8FF66
:10416000FFF736F9FEF75CFDFFF71AFD0C4B1A68F6
:104170009A4204D0996993688A689A4208D30023C6
:1041800083F31188019A23689A4205D103B030BDA8
:104190000448FEF785FCF2E7FDF76AF80008002006
:1041A000001C002000DA00080000000000000000F1
:1041B00070B5184E82B00446336801930D46FEF781
:1041C000DFFD0CB3E16B94F8203029430A2BE16347
:1041D00016D00B2B05D0019A33689A4218D102B041
:1041E00070BDA36A8B43F6D1019A336800219A42CD
:1041F000A1620DD1204602B0BDE87040FEF708BFB5
:10420000A36A1942F0D1E6E70348FEF749FCD9E773
:10421000FDF72EF80008002050DA0008000000002A
:10422000F0B5134F83B006463B6801930D46FEF789
:10423000A7FDB6B13468A6420DD0E3682B43E36016
:1042400015B12269134203D0D4E90101FFF7B0FF91
:104250002468A642F1D1019A3B689A4205D103B085
:10426000F0BD0448FEF71CFCE4E7FDF701F800BFD1
:104270000008002030DA0008000000000000000004
:1042800070B50C4CC16082B0266801960A4400608B
:10429000019E02612268069D4060C0E905119642B8
:1042A0004FF00001C3618160056201D102B070BDB1
:1042B000FCF7DEFF00080020000000000000000006
:1042C00070B5164D82B004462B6801930E46FEF77A
:1042D00057FDFEF755FDD4E905239A42A36816D091
:1042E0000133511CA36061611670D4E904329A4213
:1042F0000AD220460021FFF7C3FA0020019A2B685A
:104300009A4209D102B070BDE3686361F1E7002B06
:10431000E6D06FF00300F1E7FCF7AAFF00080020E9
:10432000F0B5234F83B03B68019304460E4620232B
:1043300083F31188FFF71CFCFEF752FCE36943B1DD
:104340002046984705E031462046FFF771FA051EE2
:1043500010DBFEF715FDA368002BF4D0A1692069DE
:104360004A1C013B8242A360A26128BFE3680D782A
:1043700028BFA361FEF754FCFFF712FC0D4B1A682F
:104380009A4204D0996993688A689A4209D30023B3
:1043900083F31188019A3B689A42284605D103B0FD
:1043A000F0BD0548FEF77CFBF1E7FCF761FF00BFBD
:1043B00000080020001C002060DA00080000000057
:1043C0002DE9F04FDFF8F490044685B0D9F80000ED
:1043D00003908A461D46D4F81C809346002A60D07C
:1043E000202383F311880193FFF7C2FBFEF7F8FB4C
:1043F0002F4E0027B8F1000F07D02046C04704E039
:1044000029462046FFF714FA60BBFEF7B9FCA36803
:10441000002BF5D0A269013B511CA161A360137868
:104420000AF8013B2369A2699A4224BFE368A361A9
:10443000FEF7F6FBFFF7B4FB3368B34204D0B26972
:104440009B6892689A4228D3002383F3118801372E
:10445000BB4519D0019B83F31188FFF789FBFEF759
:10446000BFFBC7E7FEF7DCFBFFF79AFB3368B342FD
:1044700007D0B2699B6892689A4202D20D48FEF753
:104480000FFB002383F31188039AD9F800309A4276
:1044900038460AD105B0BDE8F08F0648FEF700FBAC
:1044A000D2E70548FEF7FCFA9AE7FCF7E1FE00BF09
:1044B000001C002060DA000870DA00080008002004
:1044C00070B50B4D82602E68C16082B0C0E90000FB
:1044D00001960A44019E02612A68069C9642C0E940
:1044E0000511C0E9073401D102B070BDFCF7C0FE70
:1044F0000008002000000000000000000000000094
:104500002DE9F0412E4F82B03B6801930446884666
:104510001646202383F31188FFF72AFBFEF760FB82
:1045200005E031462046FFF783F9051E2DDBFEF737
:1045300027FCA368002BF4D06269013B511C616128
:10454000A36082F80080D4E904329A4224BFE36871
:104550006361E3690BB120469847FEF761FBFFF703
:104560001FFB184B1A689A4204D0996993688A68AD
:104570009A421ED3002585F31188019A3B689A421E
:1045800028461AD102B0BDE8F081FEF749FBFFF7DB
:1045900007FB0C4B1A689A4207D0996993688A689E
:1045A0009A4202D20848FEF77BFA002383F311886F
:1045B000E3E70548FEF774FADCE7FCF759FE00BFB5
:1045C00000080020001C002060DA00080000000045
:1045D00070B5154E82B0044633680193FEF7D0FBE8
:1045E000FEF7CEFBD4E905329342A36815D02069CB
:1045F000511C0133A360A161814215780AD2204683
:104600000021FFF73DF92846019A33689A4209D103
:1046100002B070BDE368A361F1E7002BE7D06FF053
:104620000200F1E7FCF724FE000800200000000073
:104630002DE9F04F04463B48D4F81C90006885B043
:104640000D46039001931646002A61D04FF0200AD0
:104650008AF31188FFF78CFAFEF7C2FA4FF00008D0
:10466000314FC346FEF78CFBA368002B32D0626942
:10467000013B511C6161A3602B781370D4E90432B3
:104680009A4224BFE36863610135B9F1000F01D09C
:104690002046C847FEF7C4FAFFF782FA3B68BB42E0
:1046A00007D0BA699B6892689A4202D21F48FEF707
:1046B000F7F98BF31188013E08F101081FD08AF346
:1046C0001188FFF755FAFEF78BFAFEF759FBA3683E
:1046D000002BCCD101992046FFF7AAF80028C1D0C1
:1046E000FEF79EFAFFF75CFA3B68BB4204D0BA695A
:1046F0009B6892689A420FD3002383F31188094B79
:10470000039A1B689A4240460AD105B0BDE8F08F73
:104710000748FEF7C5F999E70448FEF7C1F9EBE74A
:10472000FCF7A6FD00080020001C002060DA00084D
:1047300080DA000800000000000000000000000017
:1047400030B50B490B4A0B680B4D0C4C83B022F073
:104750000702019301980A4B09682A6023F00703B6
:104760008842236001D103B030BDFCF781FD00BF5A
:1047700000080020D72A0020742200207022002088
:104780000000022000000000000000000000000007
:1047900070B51C4E82B0336801930446202383F326
:1047A0001188FFF7E5F9FEF71BFAFEF7E9FA164A5A
:1047B000164B15681B68E01D20F007005B1B984234
:1047C0009ABF401910600025FEF72AFAFFF7E8F9B2
:1047D0000F4B1A689A4204D0996993688A689A4282
:1047E00009D3002383F31188019A33689A4228463B
:1047F00005D102B070BD0748FEF752F9F1E7FCF7AA
:1048000037FD00BF00080020742200207022002025
:10481000001C0020A0DA00080000000000000000DA
:1048200000B50B4B0B481A6883B0019201991A68C6
:10483000094B036091424FF00003C0E9023305D1F8
:10484000103003B05DF804EBFFF7AABAFCF710FDD7
:104850000008002078220020914700080000000096
:1048600080B50D4A0D4982B000AF13687B604B687C
:1048700023F001034B60EFF30983683383F3098866
:10488000002383F3118879681368994202D10837AD
:10489000BD4680BDFCF7ECFC0008002030EF00E0D6
:1048A000B0B5194C82B000AF23687B60202383F33E
:1048B0001188164B5B6813F4006308D183F31188E9
:1048C0007A6823689A421DD10837BD46B0BDF1EE23
:1048D000103AEFF309854FF080720D4B45F84C2CE0
:1048E000DB6845F8083CA5F1680383F30988FEF707
:1048F000CFFC18B1074B45F8503CE1E7064B45F8B3
:10490000503CDDE7FCF7B4FC0008002000ED00E0BF
:1049100030EF00E0E1020008F402000800000000AF
:1049200010B5184C82B02368019302F059F916486B
:1049300003F0EEFD00F0D4F800F0EAF900F030FAF0
:1049400000F05EFA00F08CFA00F0BAFA00F0E8FA33
:1049500000F016FB01F064F901F06AF801F038FA92
:1049600001F07EFA01F024FA05F02AF9019A236891
:104970009A4204D102B0BDE8104001F059BAFCF7E8
:1049800077FC00BF00080020B0DF00080000000036
:10499000F0B51A4D83B02B68019391420E46144630
:1049A000074619D38B1A1F2B16D806F01F03581C65
:1049B0006209012376098340B24203F1FF3304F018
:1049C0001F0457F822000BD31840E040019A2B68CF
:1049D0009A4210D103B0F0BD0948FEF761F8E4E750
:1049E00057F82610C4F120020B4020FA04F403FA11
:1049F00002F02043EAE7FCF73BFC00BF0008002080
:104A0000B0DA000800000000000000000000000014
:104A1000F0B51D4E83B033680193054670B37E2216
:104A20007F212846FFF7B4FF80B1012806D000207F
:104A3000019A33689A4225D103B0F0BD284630224E
:104A40004521FFF7A5FF01308002F1E73E22492111
:104A50002846FFF79DFF2F22044631212846FFF705
:104A600097FF5022074653212846FFF791FF013454
:104A700002370938BC4004FA00F0D9E70348FEF7D2
:104A80000FF8CCE7FCF7F4FB00080020D0DA0008B0
:104A9000F0B5104D83B02B680193044698B194F89B
:104AA000D63094F8D770019994F8D4602A6894F8B5
:104AB000D5001B0403EB07633344914203EB002052
:104AC00005D103B0F0BD0448FDF7EAFFE7E7FCF7C6
:104AD000CFFB00BF00080020F0DA00080000000053
:104AE00000B5074B83B01A680192019A1B689A427D
:104AF00004D103B05DF804EB02F032B9FCF7B8FB67
:104B0000000800200000000000000000000000007D
:104B100000B50C4B83B01A68019201220270019912
:104B20001A6800239142C0E90133C0E903334361AD
:104B300005D1183003B05DF804EBFFF731B9FCF78D
:104B400097FB00BF000800200000000000000000EC
:104B500070B51D4D82B02B6801930E46044668B3B4
:104B6000202383F31188FFF703F8FEF739F8237841
:104B7000013B012B02D91548FDF792FF20466660E4
:104B800002F03EF902232370FEF74AF8FFF708F817
:104B90000F4B1A689A4204D0996993688A689A42BE
:104BA00008D3002383F31188019A2B689A4209D114
:104BB00002B070BD0748FDF773FFF2E70348FDF749
:104BC0006FFFCDE7FCF754FB0008002020DB000856
:104BD000001C002010DB00080000000000000000A6
:104BE0002DE9F041174D82B00446286801900E4629
:104BF00090461F46FEF7C4F83CB136B1B8F1000F3D
:104C000003D0012F04D0FB0702D50F48FDF748FF62
:104C10002378022B05D0043B012B02D90A48FDF76B
:104C20003FFF03232370019A2B6826619A42C4E94F
:104C3000028705D1204602B0BDE8F04102F060B91C
:104C4000FCF716FB0008002030DB00080000000025
:104C50002DE9F041184C82B025680195984605462B
:104C60000E461746202383F31188FEF781FFFDF7D8
:104C7000B7FF43463A4631462846FFF7B1FFFDF7F6
:104C8000CFFFFEF78DFF0D4B1A689A4204D0996949
:104C900093688A689A4209D3002383F31188019AA2
:104CA00023689A4206D102B0BDE8F0810448FDF7BE
:104CB000F7FEF1E7FCF7DCFA00080020001C0020FA
:104CC00010DB0008000000000000000000000000F1
:104CD00030B50B4C83B023680193054650B1019A5F
:104CE00023689A420AD105F1180003B0BDE83040AC
:104CF000FFF73EB90348FDF7D3FEF0E7FCF7B8FA3B
:104D00000008002050DB0008000000000000000048
:104D100000B5074B83B01A680192019A1B689A424A
:104D200004D103B05DF804EB02F03ABFFCF7A0FA3F
:104D3000000800200000000000000000000000004B
:104D400030B5134B83B01A68019201220270019CA6
:104D50001968002200F1180300F11C05426083610C
:104D600000F1200200F12403C561026200F1280570
:104D700000F1080243628C4200F110038562C0E931
:104D80000222C0E9043301D103B030BDFCF770FA50
:104D900000080020000000000000000000000000EB
:104DA00000B5074B83B01A680192019A1B689A42BA
:104DB00004D103B05DF804EB03F08ABBFCF758FAAA
:104DC00000080020000000000000000000000000BB
:104DD00000B50A4B83B01A68019201220270019952
:104DE0001A6800239142C0E9043305D1183003B09A
:104DF0005DF804EBFEF7D4BFFCF73AFA0008002098
:104E000000B5074B83B01A680192019A1B689A4259
:104E100004D103B05DF804EB02F0E2BEFCF728FA1F
:104E2000000800200000000000000000000000005A
:104E300000B5084B83B01A68019201220270019AF2
:104E40001B6800219A42416002D103B05DF804FB67
:104E5000FCF70EFA0008002000000000000000002F
:104E600000B5074B83B01A680192019A1B689A42F9
:104E700004D103B05DF804EB04F02ABAFCF7F8F9AA
:104E800000080020000000000000000000000000FA
:104E900000B5084B83B01A68019201220270019A92
:104EA0001B6800219A42416002D103B05DF804FB07
:104EB000FCF7DEF900080020000000000000000000
:104EC00000B5074B83B01A680192019A1B689A4299
:104ED00004D103B05DF804EB03F032BDFCF7C8F970
:104EE000000800200000000000000000000000009A
:104EF00000B50A4B83B01A68019201220270019A30
:104F00001B6800219A42416005D10C3003B05DF866
:104F100004EBFEF745BFFCF7ABF900BF000800202B
:104F200000B5074B83B01A680192019A1B689A4238
:104F300004D103B05DF804EB04F00AB9FCF798F96A
:104F40000008002000000000000000000000000039
:104F500000B5084B83B01A68019201220270019AD1
:104F60001B6800219A42416002D103B05DF804FB46
:104F7000FCF77EF90008002000000000000000009F
:104F800000B5074B83B01A680192019A1B689A42D8
:104F900004D103B05DF804EB04F082BAFCF768F9C1
:104FA00000080020000000000000000000000000D9
:104FB00000B5094B83B01A68019201220270019971
:104FC0001A68002391424360C360037402D103B0A6
:104FD0005DF804FBFCF74CF900080020000000001D
:104FE00070B5214E82B0336801930D460446002807
:104FF00033D0002931D0202383F31188FEF7B8FD88
:10500000FDF7EEFD2378013B012B02D91748FDF790
:1050100047FD65606B68A360204604F081FA0022BA
:105020000223E2602370FDF7FBFDFEF7B9FD104B94
:105030001A689A4204D0996993688A689A4208D398
:10504000002383F31188019A33689A4209D102B090
:1050500070BD0848FDF724FDF2E70448FDF720FD88
:10506000C9E7FCF705F900BF0008002070DB000865
:10507000001C002060DB00080000000000000000B1
:1050800070B51C4E82B0336801930C46054650B390
:10509000202383F31188FEF76BFDFDF7A1FD2B782C
:1050A000022B02D01448FDF7FBFCAB69AC60013C5D
:1050B000DC62FDF7B5FDFEF773FD104B1A689A42EE
:1050C00004D0996993688A689A4208D3002383F3CD
:1050D0001188019A33689A4209D102B070BD08481C
:1050E000FDF7DEFCF2E70448FDF7DAFCD0E7FCF759
:1050F000BFF800BF0008002080DB0008001C002073
:1051000060DB00080000000000000000000000005C
:10511000F0B5214E83B0336801930D46174604461F
:1051200078B3037C8B422CD9202383F31188FEF7BC
:105130001FFDFDF755FD2378022B02D01748FDF720
:10514000AFFCE3680122AA401343E3603A462946D4
:10515000204604F0CDFAFDF763FDFEF721FD104B6C
:105160001A689A4204D0996993688A689A420CD363
:10517000002383F31188019A33689A4209D103B05E
:10518000F0BD0648FDF78CFCCEE70648FDF788FC2D
:10519000EEE7FCF76DF800BF0008002090DB000888
:1051A000001C002060DB0008000000000000000080
:1051B00070B5204E82B0336801930D46044678B333
:1051C000037C8B422CD9202383F31188FEF7D0FC7B
:1051D000FDF706FD2378022B02D01748FDF760FC8F
:1051E000E3680122AA4023EA0203E360294620463D
:1051F00004F096FAFDF714FDFEF7D2FC0F4B1A6887
:105200009A4204D0996993688A689A420CD3002321
:1052100083F31188019A33689A4209D102B070BDB4
:105220000548FDF73DFCCEE70548FDF739FCEEE704
:10523000FCF71EF800080020B0DB0008001C00206E
:1052400060DB00080000000000000000000000001B
:1052500030B51E4D83B02B680193044680B32023E4
:1052600083F31188FEF784FCFDF7BAFC2378022B48
:1052700002D01748FDF714FC63689B68E3B1204631
:1052800004F06EFAFDF7CCFCFEF78AFC114B1A68AD
:105290009A4204D0996993688A689A4208D3002395
:1052A00083F31188019A2B689A420DD103B030BD67
:1052B0000948FDF7F5FBF2E70548FDF7F1FBDEE7EE
:1052C0000348FDF7EDFBCAE7FBF7D2FF000800201B
:1052D000D0DB0008001C002060DB0008000000009C
:1052E00070B5294E82B0336801930D4604460028FC
:1052F00032D0037C8B422FD9202383F31188FEF711
:1053000037FCFDF76DFC2378022B02D01F48FDF718
:10531000C7FBE368EB40DB0726D5636803EBC503F7
:105320001B6953B32946204604F03AFAFDF778FC8E
:10533000FEF736FC164B1A689A4204D099699368B6
:105340008A689A420CD3002383F31188019A336848
:105350009A4216D102B070BD0C48FDF7A1FBCBE715
:105360000C48FDF79DFBEEE70848FDF799FB6368E5
:1053700003EBC5031B69002BD4D10448FDF790FB58
:10538000D0E7FBF775FF00BF00080020F0DB000846
:10539000001C002060DB000800000000000000008E
:1053A00070B5104D82B02B6801930E46044650B183
:1053B00049B12379052B0CD00120019A2B689A4220
:1053C0000ED102B070BD0848FDF76AFB2379052BAA
:1053D000F2D1A36A73604FF4007333600020ECE7EE
:1053E000FBF746FF0008002080DC000800000000FA
:1053F0002DE9F047DFF89C8386B002AFD8F8003083
:10540000FB600446002800F019812379022B01D0AB
:10541000052B2BD103232371204602F079FC0022B7
:105420001146204602F0ECFC07F108034FF4D57258
:105430000821204602F02CFDE0B9BB680122C3F32D
:1054400003239342226300F0FD80204602F098FC83
:10545000022323710125FA68D8F800309A422846C1
:1054600040F046811037BD46BDE8F087C048FDF7E3
:1054700017FBCFE707F1080300223721204602F08F
:1054800007FD002840F0BE80BB68BA4A1A40002AD7
:1054900040F0B88022631146204602F0B1FC266B32
:1054A00006F00F03022B00F0AF80B34EB34ADFF8D3
:1054B000C492012B18BF1646642504E0013DC4D0F8
:1054C0000A20FEF7C5F807F108030022372120461D
:1054D00002F0DEFC0028B8D1BB6813EA090FB4D192
:1054E00007F1080332462921204602F0A9FC0028D2
:1054F000ABD1BB68002BE1DA5B0003D5236B43F033
:105500001003236304F1080300220221204602F065
:10551000B7FD002899D1024604F138030321204643
:1055200002F0B6FC002890D104F118052B46A26BBE
:105530000921204602F0A4FD002886D13B1DA26B64
:105540000721204602F0A4FC824600287FF47DAFAC
:10555000236B03F00F03022B00F097806E467E2230
:1055600090B07F212846FFF713FA0DF108090028B3
:1055700079D10146B546204602F0EAFB236B03F0E1
:105580000F03022B00F096802846FFF741FAA06235
:105590003B1D4FF400721021204602F079FC0546B5
:1055A00000287FF452AF7B68724E33427FF44DAFD8
:1055B000236B03F00F03012B40F2B280022B7FF428
:1055C00044AFE36A1A79012A00F0A88017D3022AAF
:1055D00040F0E2806A4E1979204602F0E9FB07F1BB
:1055E000080332460621204602F052FC00287FF4D0
:1055F0002CAFBA685F4B1340002B7FF426AF052316
:10560000237128E7022323635E4E642505E0013DF4
:105610003FF41BAF0A20FEF71BF807F108033246E0
:105620000121204602F00CFC00287FF40EAFBB687D
:10563000002BECDA5B007FF565AF5FE74C48FDF7C8
:105640002FFAE2E6024607F108033721204602F06E
:105650001FFC00287FF4F9AEBA68464B1340002BBC
:105660007FF4F3AE1BE7CDF800A0062340224946A5
:10567000204602F035FD00284ED199F80D3013F088
:10568000020337D11946B54675E7E36A1B687BB15B
:1056900007F108033C4A0621204602F0F9FB38B91D
:1056A000BB6834491940B1FA81F1490963E7B5464D
:1056B000002160E77E227F212846FFF769F9012853
:1056C0007FF662AFE36A1D68002D3FF4BEAE002393
:1056D00000934FF4007208232946204602F000FD93
:1056E00000287FF4B2AE2846FFF7D2F9A0624FE758
:1056F000FBF7BEFD254B009340220623494620467A
:1057000002F0EEFC40B999F8103003F00F030F2BB4
:10571000CDD0B54601212EE7B54696E61C4E5AE798
:10572000E36A197900293FF46AAF01297FF48DAE4D
:10573000204602F03DFB07F10803A26B372120460B
:1057400002F0A6FB00287FF480AEBB6833427FF4F2
:105750007CAE07F1080302220621204602F098FBE6
:1057600000287FF472AEBB6833423FF448AF6CE66A
:1057700030DC000808E0FFFD000010C000001080D1
:105780000002B7030080FFC00001B903F1FFFF80F2
:105790000001B703000800200248034EFDF780F91E
:1057A000E36A18E710DC00080000B70300000000FF
:1057B0002DE9F041194D82B02C6801940F469046B6
:1057C0001E460446C0B1BAB1B3B12379052B02D04D
:1057D0001348FDF765F9781EA36A304498420FD943
:1057E000636B43F0800363630120019A2B689A4244
:1057F00011D102B0BDE8F0810948FDF751F9E4E7A5
:1058000006203346207142463946204602F0C8FD44
:1058100005232371E9E7FBF72BFD00BF00080020FB
:1058200050DC000800000000000000000000000044
:105830002DE9F041194D82B02C6801940F46904635
:105840001E460446C0B1BAB1B3B12379052B02D0CC
:105850001348FDF725F9781EA36A304498420FD902
:10586000636B43F0800363630120019A2B689A42C3
:1058700011D102B0BDE8F0810948FDF711F9E4E764
:1058800007203346207142463946204602F0C8FDC3
:1058900005232371E9E7FBF7EBFC00BF00080020BC
:1058A00060DC0008000000000000000000000000B4
:1058B00070B50E4D82B02B680193044680B12679F5
:1058C000052E06D00120019A2B689A420CD102B015
:1058D00070BD08232371204602F0E2FD2671F2E735
:1058E0000348FDF7DDF8EAE7FBF7C2FC00080020FB
:1058F00070DC000800000000000000000000000054
:1059000070B5124D124E2B6882B0044601936B465F
:10591000A26B0D21204602F0BBFA78B9009B3342FE
:105920000BD1C3F34323042B08D04FF0010005D360
:10593000072B03D8FDF78CFEE9E70120019A2B68BD
:105940009A4201D102B070BDFBF792FC0008002022
:1059500008E0FFFD00000000000000000000000063
:1059600070B52D4E82B033680193044600284CD0A8
:10597000202383F31188FEF7FBF8FDF731F9237933
:10598000022B29D0052B21D104232371FDF748F9DF
:10599000FEF706F9214B1A689A4204D09969936878
:1059A0008A689A4229D3002383F311882046FFF79F
:1059B000A7FF0546204602F0E3F902232371019A6E
:1059C00033689A42284624D102B070BD1448FDF7CE
:1059D00067F82379022BD7D1FDF722F9FEF7E0F81B
:1059E0000E4B1A689A4204D0996993688A689A4261
:1059F00007D3002585F31188E1E70A48FDF750F841
:105A0000D1E70848FDF74CF8F3E70548FDF748F8FB
:105A1000AEE7FBF72DFC00BF00080020001C0020B3
:105A200040DC000890DC00080000000000000000DE
:105A300000B5074B83B01A680192019A1B689A421D
:105A400004D103B05DF804EB02F042B9FBF710FC9F
:105A5000000800200000000000000000000000001E
:105A600010B50A4B0A4A1968026082B001240191FC
:105A700001991A680471002391424363C0E90A3313
:105A800001D102B010BDFBF7F3FB00BF00080020FE
:105A9000A0DC000800000000000000000000000082
:105AA00030B5084C83B025680195019D2468A54256
:105AB00005D10C3003B0BDE83040FEF781BCFBF7E8
:105AC000D7FB00BF0008002000000000000000001D
:105AD00010B5094B82B01C680194019C1B689C4264
